:020000040000FA
:1000000010BE01207186000095CE05005D860000BF
:100010005D8600005D8600005D8600005D86000054
:100020000000000000000000000000002588000023
:100030005D86000000000000E58700005D8600008E
:10004000A1890000A1890000A1890000A189000008
:10005000A1890000A1890000A1890000A1890000F8
:10006000A1890000A1890000A1890000A1890000E8
:10007000A1890000A1890000A1890000A1890000D8
:10008000A1890000A1890000A1890000A1890000C8
:10009000A1890000A1890000A1890000A1890000B8
:1000A000A1890000A1890000A1890000A1890000A8
:1000B000A1890000A1890000A1890000A189000098
:1000C000A1890000A1890000A1890000A189000088
:1000D000A1890000A1890000A1890000A189000078
:1000E000A1890000A1890000A1890000A189000068
:1000F000A1890000A1890000A1890000A189000058
:10010000A1890000A1890000A1890000A189000047
:10011000A1890000A1890000A1890000A189000037
:10012000A1890000A1890000A1890000A189000027
:10013000A1890000A1890000A1890000A189000017
:10014000A1890000A1890000A1890000A189000007
:10015000A1890000FFFFFFFF81F0004102E000BF26
:1001600083F0004330B54FEA41044FEA430594EA77
:10017000050F08BF90EA020F1FBF54EA000C55EAB2
:10018000020C7FEA645C7FEA655C00F0E2804FEA83
:100190005454D4EB5555B8BF6D420CDD2C4480EA65
:1001A000020281EA030382EA000083EA010180EA95
:1001B000020281EA0303362D88BF30BD11F0004FE3
:1001C0004FEA01314FF4801C4CEA113102D0404219
:1001D00061EB410113F0004F4FEA03334CEA133354
:1001E00002D0524263EB430394EA050F00F0A7806C
:1001F000A4F10104D5F1200E0DDB02FA0EFC22FA67
:1002000005F2801841F1000103FA0EF2801843FA5A
:1002100005F359410EE0A5F120050EF1200E012A4B
:1002200003FA0EFC28BF4CF0020C43FA05F3C01889
:1002300051EBE37101F0004507D54FF0000EDCF102
:10024000000C7EEB00006EEB0101B1F5801F1BD3AB
:10025000B1F5001F0CD349085FEA30004FEA3C0CAF
:1002600004F101044FEA445212F5800F80F09A80A5
:10027000BCF1004F08BF5FEA500C50F1000041EBA9
:10028000045141EA050130BD5FEA4C0C404141EBAD
:100290000101013C28BFB1F5801FE9D291F0000FA8
:1002A00004BF01460020B1FA81F308BF2033A3F157
:1002B0000B03B3F120020CDA0C3208DD02F1140C4E
:1002C000C2F10C0201FA0CF021FA02F10CE002F189
:1002D0001402D8BFC2F1200C01FA02F120FA0CFC82
:1002E000DCBF41EA0C019040E41AA2BF01EB0451CB
:1002F000294330BD6FEA04041F3C1CDA0C340EDCC9
:1003000004F11404C4F1200220FA04F001FA02F30B
:1003100040EA030021FA04F345EA030130BDC4F1C9
:100320000C04C4F1200220FA02F001FA04F340EABE
:100330000300294630BD21FA04F0294630BD94F06F
:10034000000F83F4801306BF81F480110134013D56
:100350004EE77FEA645C18BF7FEA655C29D094EAC7
:10036000050F08BF90EA020F05D054EA000C04BF45
:100370001946104630BD91EA030F1EBF0021002030
:1003800030BD5FEA545C05D14000494128BF41F0CF
:10039000004130BD14F580043CBF01F5801130BD33
:1003A00001F0004545F0FE4141F470014FF00000BE
:1003B00030BD7FEA645C1ABF194610467FEA655C6F
:1003C0001CBF0B46024650EA013406BF52EA033511
:1003D00091EA030F41F4002130BD00BF90F0000FFF
:1003E00004BF0021704730B54FF4806404F132043B
:1003F0004FF000054FF0000150E700BF90F0000FF4
:1004000004BF0021704730B54FF4806404F132041A
:1004100010F0004548BF40424FF000013EE700BFEA
:1004200042004FEAE2014FEA31014FEA02701FBF7A
:1004300012F07F4393F07F4F81F06051704732F0AC
:100440007F4208BF704793F07F4F04BF41F4002103
:10045000704730B54FF4607401F0004521F0004161
:100460001CE700BF50EA010208BF704730B54FF0EB
:1004700000050AE050EA010208BF704730B511F0EC
:10048000004502D5404261EB41014FF4806404F124
:1004900032045FEA915C3FF4D8AE4FF003025FEAAA
:1004A000DC0C18BF03325FEADC0C18BF033202EB2E
:1004B000DC02C2F1200300FA03FC20FA02F001FA88
:1004C00003FE40EA0E0021FA02F11444BDE600BF2B
:1004D00070B54FF0FF0C4CF4E06C1CEA11541DBFDA
:1004E0001CEA135594EA0C0F95EA0C0F00F0DEF8A5
:1004F0002C4481EA030621EA4C5123EA4C5350EA8A
:10050000013518BF52EA033541F4801143F48013DA
:1005100038D0A0FB02CE4FF00005E1FB02E506F06B
:100520000042E0FB03E54FF00006E1FB03569CF0C0
:10053000000F18BF4EF0010EA4F1FF04B6F5007FC6
:1005400064F5407404D25FEA4E0E6D4146EB060638
:1005500042EAC62141EA55514FEAC52040EA5E50C1
:100560004FEACE2EB4F1FD0C88BFBCF5E06F1ED86B
:10057000BEF1004F08BF5FEA500E50F1000041EBA2
:10058000045170BD06F0004646EA010140EA02004F
:1005900081EA0301B4EB5C04C2BFD4EB0C0541EA71
:1005A000045170BD41F480114FF0000E013C00F386
:1005B000AB8014F1360FDEBF002001F0004170BDAA
:1005C000C4F10004203C35DA0C341BDC04F11404C3
:1005D000C4F1200500FA05F320FA04F001FA05F24F
:1005E00040EA020001F0004221F0004110EBD3701C
:1005F00021FA04F642EB06015EEA430E08BF20EA48
:10060000D37070BDC4F10C04C4F1200500FA04F3EA
:1006100020FA05F001FA04F240EA020001F000417C
:1006200010EBD37041F100015EEA430E08BF20EAEF
:10063000D37070BDC4F1200500FA05F24EEA020E37
:1006400020FA04F301FA05F243EA020321FA04F066
:1006500001F0004121FA04F220EA020000EBD3701D
:100660005EEA430E08BF20EAD37070BD94F0000F1D
:100670000FD101F00046400041EB010111F4801F51
:1006800008BF013CF7D041EA060195F0000F18BF02
:10069000704703F00046520043EB030313F4801F3E
:1006A00008BF013DF7D043EA0603704794EA0C0FF8
:1006B0000CEA135518BF95EA0C0F0CD050EA41060E
:1006C00018BF52EA4306D1D181EA030101F000418B
:1006D0004FF0000070BD50EA410606BF10461946B3
:1006E00052EA430619D094EA0C0F02D150EA0136BF
:1006F00013D195EA0C0F05D152EA03361CBF104600
:1007000019460AD181EA030101F0004141F0FE419E
:1007100041F470014FF0000070BD41F0FE4141F422
:10072000780170BD70B54FF0FF0C4CF4E06C1CEA22
:1007300011541DBF1CEA135594EA0C0F95EA0C0FD7
:1007400000F0A7F8A4EB050481EA030E52EA033592
:100750004FEA013100F088804FEA03334FF08055B3
:1007600045EA131343EA12634FEA022245EA1115E0
:1007700045EA10654FEA00260EF000419D4208BF91
:10078000964244F1FD0404F5407402D25B084FEA3E
:100790003202B61A65EB03055B084FEA32024FF4EA
:1007A00080104FF4002CB6EB020E75EB030E22BF47
:1007B000B61A754640EA0C005B084FEA3202B6EB07
:1007C000020E75EB030E22BFB61A754640EA5C00B6
:1007D0005B084FEA3202B6EB020E75EB030E22BF46
:1007E000B61A754640EA9C005B084FEA3202B6EB47
:1007F000020E75EB030E22BFB61A754640EADC0006
:1008000055EA060E18D04FEA051545EA16754FEA67
:1008100006164FEAC30343EA52734FEAC2025FEA85
:100820001C1CC0D111F4801F0BD141EA00014FF014
:1008300000004FF0004CB6E711F4801F04BF0143E5
:100840000020B4F1FD0C88BFBCF5E06F3FF6AFAE01
:10085000B5EB030C04BFB6EB020C5FEA500C50F191
:10086000000041EB045170BD0EF0004E4EEA113114
:1008700014EB5C04C2BFD4EB0C0541EA045170BD1B
:1008800041F480114FF0000E013C90E645EA060E5F
:100890008DE60CEA135594EA0C0F08BF95EA0C0F8D
:1008A0003FF43BAF94EA0C0F0AD150EA01347FF4D5
:1008B00034AF95EA0C0F7FF425AF104619462CE7AC
:1008C00095EA0C0F06D152EA03353FF4FDAE10460F
:1008D000194622E750EA410618BF52EA43067FF460
:1008E000C5AE50EA41047FF40DAF52EA43057FF4F0
:1008F000EBAE12E74FF0FF3C06E000BF4FF0010CFB
:1009000002E000BF4FF0010C4DF804CD4FEA410C5E
:100910007FEA6C5C4FEA430C18BF7FEA6C5C1BD02B
:1009200001B050EA410C0CBF52EA430C91EA030FAC
:1009300002BF90EA020F0020704710F1000F91EA09
:10094000030F58BF994208BF90422CBFD8176FEAD7
:10095000E37040F0010070474FEA410C7FEA6C5CA5
:1009600002D150EA013C07D14FEA430C7FEA6C5CAC
:10097000D6D152EA033CD3D05DF8040B704700BFD8
:100980008446104662468C461946634600E000BF26
:1009900001B5FFF7B7FF002848BF10F1000F01BDF8
:1009A0004DF808EDFFF7F4FF0CBF012000205DF8C3
:1009B00008FB00BF4DF808EDFFF7EAFF34BF012048
:1009C00000205DF808FB00BF4DF808EDFFF7E0FFE1
:1009D00094BF012000205DF808FB00BF4DF808ED32
:1009E000FFF7CEFF94BF012000205DF808FB00BF99
:1009F0004DF808EDFFF7C4FF34BF012000205DF87B
:100A000008FB00BF4A0011D212F5001211D20DD519
:100A10006FF47873B3EB62520ED44FEAC12343F004
:100A2000004343EA505323FA02F070474FF00000AE
:100A3000704750EA013002D14FF0FF3070474FF05D
:100A4000000070474FEA4102B2F1E04324BFB3F522
:100A5000001CDCF1FE5C0DD901F0004C4FEAC00235
:100A60004CEA5070B2F1004F40EB830008BF20F019
:100A70000100704711F0804F21D113F13872BCBFD3
:100A800001F00040704741F480114FEA5252C2F128
:100A90001802C2F1200C10FA0CF320FA02F018BF71
:100AA00040F001004FEAC1234FEAD32303FA0CFCC4
:100AB00040EA0C0023FA02F34FEA4303CCE77FEA53
:100AC000625307D150EA01331EBF4FF0FE4040F49D
:100AD0004000704701F0004040F0FE4040F400004C
:100AE000704700BF7BB972B90029BEBF00204FF02C
:100AF000004106E008BF00281CBF6FF000414FF026
:100B0000FF3000F075B8ADF1080C6DE904CE002996
:100B100009DB002B1ADB01F0B4F8DDF804E0DDE9B5
:100B2000022304B07047404261EB4101002B1BDB04
:100B300001F0A7F8DDF804E0DDE9022304B040424B
:100B400061EB4101524263EB43037047524263EB56
:100B5000430301F096F8DDF804E0DDE9022304B078
:100B6000404261EB41017047524263EB430301F0A5
:100B700088F8DDF804E0DDE9022304B0524263EBBB
:100B80004303704753B94AB9002908BF00281CBF66
:100B90004FF0FF314FF0FF3000F02AB8ADF1080CF4
:100BA0006DE904CE01F06DF8DDF804E0DDE9022323
:100BB00004B07047D0B500220B4B06460F46FFF736
:100BC00087FCFFF71FFF0446FFF708FC0022074BD6
:100BD000FFF77EFC02460B4630463946FFF7C0FA67
:100BE000FFF710FF2146D0BD0000F03D0000F041AE
:100BF000704700BF844641EA000313F0030349D164
:100C0000403A23D30B6803604B6843608B68836072
:100C1000CB68C3600B6903614B6943618B69836176
:100C2000CB69C3610B6A03624B6A43628B6A83625E
:100C3000CB6AC3620B6B03634B6B43638B6B836346
:100C4000CB6BC36340304031403ADBD230320BD300
:100C50000B6803604B6843608B688360CB68C3603C
:100C600010301031103AF3D20C3205D351F8043B56
:100C700040F8043B043AF9D2043208D0D2071CBF32
:100C800011F8013B00F8013B01D30B88038060465B
:100C9000704700BF082A13D38B07B1D010F00303AD
:100CA000AED0C3F10403D21ADB071CBF11F8013B1D
:100CB00000F8013BA4D331F8023B20F8023B9FE748
:100CC000043AD9D3013A11F8013B00F8013BF9D2BB
:100CD0000B7803704B7843708B7883706046704755
:100CE00080EA010C1CF0030F37D110F0030C20F048
:100CF000030021F0030150F8042B08BF51F8043B16
:100D00000ED08CF0030C6FF07F434FEACC0C23FA2B
:100D10000CFC51F8043B42EA0C0243EA0C0300BF0E
:100D2000A2F1013C9A4201BF2CEA020C1CF0803F68
:100D300050F8042B51F8043BF2D04FEA02604FEA1E
:100D40001222012828BFB0EB036F08BF1B0AF4D0A2
:100D500003F0FF03000EC01A704710F0030F0AD013
:100D600010F8012B11F8013B012A28BF9A42F4D058
:100D7000A2EB030070474DF8045D50F8042B01F01E
:100D8000030521F0030151F8043B022D26D04DD874
:100D900022F07F45B5EB132FA2F1013C2CEA020CA7
:100DA0000DD11CF0803C08BF51F8043B0AD185EA04
:100DB0000205B5EB036F0CD150F8042BE8E74FEABE
:100DC00013235BE03CF07F4C54D10B784FEA126563
:100DD00054E04FEA126503F0FF034FE04FEA02458B
:100DE000A2F1013C4FEA15452CEA020CB5EB134F7A
:100DF00018D11CF0803C08BF51F8043B07D185EAAC
:100E00000205B5EB034F09D150F8042BE6E75FEA82
:100E10000C4C2FD10B884FEA12452FE04FEA0343C9
:100E20004FEA12454FEA134328E000BF02F0FF05E6
:100E3000B5EB136FA2F1013C2CEA020C0DD11CF0B2
:100E4000803C08BF51F8043B0AD185EA0205B5EBA6
:100E5000032F0AD150F8042BE8E74FEA13630DE0A3
:100E600012F0FF0F06D051F8043B4FEA122523F091
:100E70007F4303E04FF0000020BC704705F0FF0205
:100E800003F0FF00012828BF904204BF2D0A1B0A6F
:100E9000F4D0A2EB000020BC704700BF4FEA410C29
:100EA0007FEA6C5C02D150EA013C0AD14FEA430C64
:100EB0007FEA6C5C02D152EA033C02D14FF00000A1
:100EC00070474FF0010070474FEA410212F50012DF
:100ED00015D211D56FF47873B3EB625212D94FEA81
:100EE000C12343F0004343EA505311F0004F23FA6B
:100EF00002F018BF404270474FF00000704750EAC0
:100F0000013005D111F0004008BF6FF0004070477C
:100F10004FF00000704700BF2DE9F14F03F11C04B2
:100F200002EB840C4FEA930B8A68CB680868496827
:100F300000F046F93CE9F0006040694072407B40B7
:100F40000BF1060E4EE083EA134480EA134582EA71
:100F5000134746BA96EA3444604000F00F1684EA1C
:100F6000063420F00F1684EA161054BA94EA0106EB
:100F7000724002F00F1486EA043622F00F1486EA5B
:100F800014124CBA6540694001F00F1485EA04352B
:100F900021F00F1485EA14115CBA67407B4003F01E
:100FA0000F1487EA043723F00F1487EA141344BAA6
:100FB00044404DBA4D4056BA56405FBA5F4087EA4A
:100FC000174886EA174B84EA17464FEA38488BEAF7
:100FD0001B4485EA1B4788EA1B4580EA3440694088
:100FE00072407B4000F0703400F0803500F00F302C
:100FF00040EA440040EAD50080EA900404F033243B
:1010000080EA8400604001F0703401F0803501F026
:101010000F3141EA440141EAD50181EA910404F02B
:10102000332481EA8401614002F0703402F080359B
:1010300002F00F3242EA440242EAD50282EA920406
:1010400004F0332482EA8402624003F0703403F037
:10105000803503F00F3343EA440343EAD50383EAC0
:10106000930404F0332483EA84036340C943DB43DD
:1010700081EA000483EA044686EA020183EA014326
:1010800082EA334583EA14435C4084EA00077FEA3E
:10109000040A8AEA024A8AEA010B87EA11488AEAC4
:1010A000374A80EA060181EA1A418AEA030A04EA19
:1010B0000A00454088EA040707EA0B0041408AEA33
:1010C0000B0608EA060084EA34428AEA3A4602EA53
:1010D000060358404540414087EA37438BEA3B408E
:1010E00003EA000985EA090582EA0309464006EA9F
:1010F0000906714085EA010005EA3546464006EAE0
:10110000314181EA304181EA364606EA304686EAD4
:10111000354634400F4086EA010508EA050886EAAC
:101120003640024088EA020881EA314213405C40BE
:1011300080EA020309EA030987EA0907674088EAA7
:10114000040806EA0A0601EA0B018AEA0B042540B4
:101150008AEA3A44204045408BEA3B4B02EA0B02C4
:10116000564084EA0B04234059406E40694087EAA8
:10117000364080EA384080EA060380EA104481EA7B
:10118000134585EA344585EA17427D4082EA3541B8
:1011900080EA05403CE9F0006040694072407B40D5
:1011A000BEF1010E3FF6CFAE20BC00F05FF8286024
:1011B0006960AA60EB60BDE8F08F00BF00F000BA84
:1011C00080EA101404F0F01480EA0410604081EA10
:1011D000111404F0F01481EA0411614082EA12143F
:1011E00004F0F01482EA0412624083EA131404F05B
:1011F000F01483EA0413634080EA102404F47F446B
:1012000080EA0420604081EA112404F47F4481EAEA
:101210000421614082EA122404F47F4482EA042219
:10122000624083EA132404F47F4483EA0423634086
:1012300081EA500404F0553480EA4400614083EAB6
:10124000520404F0553482EA4402634082EA900476
:1012500004F0333480EA8400624083EA910404F0AD
:10126000333481EA84016340704700BF82EA90040E
:1012700004F0333480EA8400624083EA910404F08D
:10128000333481EA8401634081EA500404F0553428
:1012900080EA4400614083EA520404F0553482EA53
:1012A0004402634080EA102404F47F4480EA04206E
:1012B000604081EA112404F47F4481EA0421614002
:1012C00082EA122404F47F4482EA0422624083EA20
:1012D000132404F47F4483EA0423634080EA101457
:1012E00004F0F01480EA0410604081EA111404F064
:1012F000F01481EA0411614082EA121404F0F0143F
:1013000082EA0412624083EA131404F0F01483EAC0
:1013100004136340704700BF2DE9F14F94464FEA34
:10132000930B8A68CB6808684968FFF749FF0BF19F
:10133000060E33E083EA134480EA134582EA13473A
:1013400046BA96EA3444604000F00F1684EA063448
:1013500020F00F1684EA161054BA94EA010672407F
:1013600002F00F1486EA043622F00F1486EA1412F3
:101370004CBA6540694001F00F1485EA043521F04C
:101380000F1485EA14115CBA67407B4003F00F1418
:1013900087EA043723F00F1487EA1413BCE8F0003F
:1013A0006040694072407B4000F0E03400F010354E
:1013B00000F00F3040EA540040EAC50080EA900493
:1013C00004F0332480EA8400604001F0E03401F04E
:1013D000103501F00F3141EA540141EAC50181EABB
:1013E000910404F0332481EA8401614002F0E03486
:1013F00002F0103502F00F3242EA540242EAC5020E
:1014000082EA920404F0332482EA8402624003F008
:10141000E03403F0103503F00F3343EA540343EA9A
:10142000C50383EA930404F0332483EA840363400E
:1014300081EA324787EA134581EA354690EA060495
:1014400084EA034B82EA1B4280EA044484EA0544AE
:1014500083EA144A85EA14448BEA044B84EA37444D
:1014600081EA0B4181EA164104EA0A00454082EA1A
:1014700004082BEA080041408AEA0B0602EA06004B
:1014800084EA34438AEA3A4603EA0607784045404C
:10149000414088EA38478BEA3B4007EA000985EA81
:1014A000090583EA0709464006EA0906714085EA0C
:1014B000010005EA3546464006EA314181EA3041FD
:1014C00081EA364606EA304686EA3546344008EA7E
:1014D000010886EA01052A4086EA364003405A4060
:1014E00081EA31431F407C4080EA030709EA07098B
:1014F00088EA0908544088EA020806EA0A0601EA6E
:101500000B018AEA0B0215408AEA3A421040454034
:101510008BEA3B4003405E404240174079404D40DB
:101520004E40E443F64386EA18435D4085EA0540B1
:1015300083EA134386EA034183EA384284EA11438B
:1015400083EA04435FEA3343BEF1010E3FF6F2AE95
:101550001ED4BCE8F0006040694072407B4020BC73
:10156000FFF784FE28606960AA60EB60BDE8F08F39
:101570002DE9E0414FF2F00280EA1031114080EA9B
:101580000130484041088208C3084FF0000E4FE781
:1015900000F0113001F0113102F0113203F011337B
:1015A00040EA410040EA820040EAC3004FF2F00204
:1015B00080EA1031114080EA01304840BDE8E08106
:1015C0002DE9F04F02F11C050646074600EB8508A1
:1015D00051F8040B043A46F8040BF9D14FF0010C12
:1015E000FFF7C6FF5FEA302080EA0C001ECF4140C3
:1015F0004A4053405C401EC62000464517D04FEA83
:101600004C0C1CF4807F18BFACF1E50C2C2DE7D0FE
:101610003C2D06D1FFF7ACFF06CF41404A4006C63D
:10162000100006CF41404A4006C61000D8E736E910
:101630000F00FFF7C5FD043D86E80F00F7D1BDE8B8
:10164000F08F00BF2DE9F04FB0E8FE0783B02DE921
:10165000010790E8005F4FF00A0006900198DB193F
:101660009CEA030C18EB3C4897EA080713EB375346
:1016700093EA3C4C18EB3C6898EA375724189EEAEA
:10168000040E19EB3E4990EA090014EB305494EA39
:101690003E4E19EB3E6999EA3050CDE90489DDE907
:1016A000028949199AEA010A18EB3A4895EA0805AD
:1016B00011EB355191EA3A4A18EB3A6898EA3555F8
:1016C00092199BEA020B19EB3B4996EA090612EBC9
:1016D000365292EA3B4B19EB3B6999EA365613EBCB
:1016E000706393EA3B6B18EB3B4898EA706013EB2E
:1016F000305393EA3B4B5FEA3B6B18EB0B0898EADD
:1017000030505FEA706014EB756494EA3C6C19EB3E
:101710003C4999EA756514EB355494EA3C4C5FEA10
:101720003C6C19EB0C0999EA35555FEA7565CDE912
:101730000289DDE9048911EB766191EA3E6E18EBCE
:101740003E4898EA766611EB365191EA3E4E5FEAE2
:101750003E6E18EB0E0898EA36565FEA766612EB94
:10176000776292EA3A6A19EB3A4999EA776712EB9B
:10177000375292EA3A4A5FEA3A6A19EB0A0999EA59
:1017800037575FEA77670190069801387FF465AFB5
:1017900001BC80E8005FBDE8000700E9FE0703B078
:1017A000BDE8F08F30B44FF0000310F8014B11F892
:1017B000015B013A84EA050443EA0403F5D1A3F18D
:1017C00001034FEAD37030BC704700BF4FF00003F5
:1017D00010F8012B013943EA0203F9D1A3F1010307
:1017E0004FEAD370704700BF30B411F8014B12F8C4
:1017F000015B6C4000F8014B013BF6D130BC7047F7
:101800002DE9F14FF8C892E8005E19EB03095AEB95
:10181000040A5BEB050B5CEB060C4EEB070E91E844
:10182000E001A9FB0502AAFB0543E9FB6624EAFBEC
:101830006634A9FB0765E9FB6845B1E80003EBFBEB
:101840006836ECFB6846EEFB6856ABFB0987ECFBA1
:101850006957EEFB696791E80202EAFB6148EBFB1E
:101860006158ECFB6168EEFB61784FF00001EAFB28
:101870000951EBFB6961ECFB6971EEFB69814FF487
:10188000A03C4FEA154949EA06495FF0000AE9FB26
:101890000C0A4FEA164646EA0746E6FB6C2A4FEA70
:1018A000174747EA0847E7FB6C3A4FEA184848EA07
:1018B0000148E8FB6C4AADB25544AF0805F003059A
:1018C00007EB8707C01952F1000153F1000254F1F0
:1018D000000345F1000420BC1FC5BDE8F08F00BF28
:1018E00030B490E83C10511D53F1000154F1000157
:1018F00055F100014CF100014FEA9101494201F01C
:101900000501521853F1000354F1000455F100058C
:101910004CF1000C0CF0030C80E83C1030BC70471C
:101920002DE9F04F90E8F00F00F140004FF0040E69
:1019300059E0F0B4826BC36B0468052524268759EF
:101940003C444FEA724787EAF24787EA92273C44D1
:1019500042684FEAF21787EAB24787EAD2073C4467
:1019600040F8044B032D08BF6FF01B0687593A441B
:101970004FEA734787EAF34787EA93273A44436875
:101980004FEAF31787EAB34787EAD3073A4440F8A8
:10199000042B87593B444FEA744787EAF44787EAA8
:1019A00094273B4444684FEAF41787EAB44787EA30
:1019B000D4073B4440F8043B013DC0D1A0F13C00BA
:1019C000076A3C444FEA724787EAF24787EA922760
:1019D0003C4402684FEAF21787EAB24787EAD20727
:1019E0003C44C463F0BC4FF0020288EA781C8CEAE5
:1019F000F84C0BEBBC1C8AEA090303EA080383EAF0
:101A00000A039C4450F8043B9C4451F8043B9C441A
:101A1000674444EA050B0BEA060B04EA05034BEAAC
:101A2000030BE34484EAF42383EA34530BEBB30B54
:101A300087EA771C8CEAF74C0AEBBC1C89EA08039E
:101A400003EA070383EA09039C4450F8043B9C44DF
:101A500051F8043B9C4466444BEA040A0AEA050A2E
:101A60000BEA04034AEA030AE2448BEAFB2383EA13
:101A70003B530AEBB30A86EA761C8CEAF64C09EB78
:101A8000BC1C88EA070303EA060383EA08039C44B4
:101A900050F8043B9C4451F8043B9C4465444AEA9A
:101AA0000B0909EA04090AEA0B0349EA0309E144BC
:101AB0008AEAFA2383EA3A5309EBB30985EA751CEB
:101AC0008CEAF54C08EBBC1C87EA060303EA050325
:101AD00083EA07039C4450F8043B9C4451F8043BC0
:101AE0009C44644449EA0A0808EA0B0809EA0A0324
:101AF00048EA0308E04489EAF92383EA395308EB0A
:101B0000B30884EA741C8CEAF44C07EBBC1C86EA2C
:101B1000050303EA040383EA06039C4450F8043BEC
:101B20009C4451F8043B9C44E34448EA090707EA13
:101B30000A0708EA090347EA0307674488EAF82323
:101B400083EA385307EBB3078BEA7B1C8CEAFB4C28
:101B500006EBBC1C85EA040303EA0B0383EA0503D6
:101B60009C4450F8043B9C4451F8043B9C44E244A0
:101B700047EA080606EA090607EA080346EA0306F2
:101B8000664487EAF72383EA375306EBB3068AEA0B
:101B90007A1C8CEAFA4C05EBBC1C84EA0B0303EAC2
:101BA0000A0383EA04039C4450F8043B9C4451F824
:101BB000043B9C44E14446EA070505EA080506EAB9
:101BC000070345EA0305654486EAF62383EA3653AC
:101BD00005EBB30589EA791C8CEAF94C04EBBC1CD3
:101BE0008BEA0A0303EA090383EA0B039C4450F8D7
:101BF000043B9C4451F8043B9C44E04445EA060401
:101C000004EA070405EA060344EA0304644485EA97
:101C1000F52383EA355304EBB304013A7FF4E5AED0
:101C2000A0F14000BEF1010E7FF483AEA0F1400CA4
:101C30009CE80F00001949199219DB19ACE80F0054
:101C40009CE80F004044494452445B44ACE80F0018
:101C5000BDE8F08F38B50022002304460D46FEF79C
:101C6000A9FE28B920462946BDE83840FEF7A2BFA4
:101C7000204605F10041FEF79DFF404261EB410126
:101C800038BD2DE9F04786468C460846089E154625
:101C900074461946002B40F0C1808542B2FA82F2A8
:101CA00045D94AB1C2F1200300FA02FC95409440A4
:101CB0002EFA03F343EA0C0C4FEA154EA8B2230C9C
:101CC000BCFBFEF80EFB18CC08FB00F943EA0C4302
:101CD000994528D9EB1808F1FF3704D2994502D964
:101CE000A8F102072B44A3EB0903A4B2B3FBFEFC4B
:101CF0000EFB1C330CFB00F044EA0344A04214D951
:101D00002C190CF1FF3304D2A04202D9ACF102032A
:101D10002C44241A43EA07401EB1D4400023346007
:101D20007360BDE8F0874746DDE76346F1E792BBA5
:101D3000431B01214FEA154EAFB2200CB3FBFEFC52
:101D40000EFB1C330CFB07F840EA0343984561D9AE
:101D5000EB180CF1FF3004D2984502D9ACF1020027
:101D60002B44A3EB0803A4B2B3FBFEFC0EFB1C3315
:101D70000CFB07F744EA0344A7424DD92C190CF198
:101D8000FF3304D2A74202D9ACF102032C44E41B76
:101D900043EA0040C0E7C2F120039540944020FA96
:101DA00003F12EFA03F34FEA154E9040AFB203430E
:101DB000B1FBFEFC0EFB1C10190C0CFB07F841EAF2
:101DC0000041884522D969180CF1FF3004D28845BA
:101DD00002D9ACF102002944A1EB08019BB2B1FB8E
:101DE000FEFC0EFB1C110CFB07F743EA01439F426C
:101DF0000ED9EB180CF1FF3104D29F4202D9ACF19D
:101E000002012B44DB1B41EA004193E76046E3E714
:101E10006146F7E76046A4E76346B8E7834206D920
:101E200016B9002108467CE7C6E900E0F9E7B3FAF5
:101E300083F78FB9834201D3724508D8BEEB020401
:101E400060EB030301209C461EB9002169E7384678
:101E5000FAE7C6E9004CF8E7C7F1200CBB400EFAE0
:101E600007F522FA0CF42EFA0CF1BA401C4320FAC2
:101E70000CF3B8404FEA144901431FFA84FEB3FB48
:101E8000F9F809FB18300B0C08FB0EFA43EA004383
:101E90009A4540D9E31808F1FF3004D29A4502D997
:101EA000A8F102002344A3EB0A0389B2B3FBF9F8BB
:101EB00009FB183308FB0EFE41EA03418E452CD97D
:101EC000611808F1FF3304D28E4502D9A8F102034C
:101ED000214443EA0040A1EB0E01A0FB02984145DA
:101EE000CE46434602D306D14D4504D20138B9EB64
:101EF000020E68EB0403002EA7D0B5EB0E0261EBD7
:101F0000030101FA0CFC22FA07F3F9404CEA03033F
:101F1000C6E9003199E74046C5E74346D9E70000E6
:101F20002DE9F04182B0654D00AFD5F86431996874
:101F300011F001011DD140F603403A1D08F0FAFBF3
:101F40000446002840F0B5807C68E3681B786BB9D4
:101F50000AF068FB05F1D403D3E8AF2F02F00902C1
:101F6000D3E8EF1FC3E8E02F0028F9D1204611F095
:101F7000FFFC002141F203003A1D08F0DBFB0446A0
:101F8000002840F096807B684D4EDA68D2F8010058
:101F9000D2F8051003C6184611F0EAFC214641F2BA
:101FA00001003A1D08F0C6FB0446002840F081807D
:101FB0007868C3685A7885F870205A88A5F8722026
:101FC0001A7985F87120B3F80720A5F87420B3F8C2
:101FD0000530A5F8763011F0CBFC214641F2020025
:101FE0003A1D08F0A7FB0446002862D1D7F804C0C8
:101FF000DCF80C20531C4132344618685968083309
:1020000003C493422646F7D1604611F0B1FC0AF0B2
:102010001FFD044600284CD195F88A309A0610D44A
:102020000221284A28485BF052F995F87C305B067B
:102030004ED40121254A24485BF049F96FF012047F
:1020400037E0072140F6334008F038FB0646002809
:1020500000F0228107210C305DF098FF6FF009033A
:102060004FF0010803700623C0F802408471047128
:10207000224680F80180C370314640F6334008F0B4
:1020800059FB0446A8B9414640F6314008F016FB1A
:102090000646002800F0008141460C305DF085FFC7
:1020A0002246314640F6314008F044FB0446002801
:1020B000BBD020460837BD46BDE8F08100000020B7
:1020C000780000208FF5080058850700BDF508004E
:1020D000002142F203003A1D08F02CFB04460028C0
:1020E000E7D17B68904EDA68D2F80100D2F805108B
:1020F00003C6184611F03CFC214642F202003A1D8C
:1021000008F018FB04460028D3D17C68E368B3F8D4
:10211000012091B249B1D97839B1A5F80421DA7812
:10212000114606F1280072F003FB204611F020FC56
:102130001F2395F87C60A5F8203116F0200618D1F1
:10214000022140F66D4008F0B9FA0446002800F07C
:10215000A38002210C305DF019FF0123214603709A
:102160004670324640F66D4008F0E4FA0446002816
:102170009FD195F89C301E0712D5002142F21C0019
:102180003A1D08F0D7FA0446002892D17868C3684F
:10219000D3F80120D3F80530C5E9382311F0E8FB66
:1021A00095F8D8305C0610D5002142F22A003A1D7D
:1021B00008F0C0FA044600287FF47BAF7868C36853
:1021C0005B7885F8223111F0D3FB082142F201003F
:1021D00008F074FA044600285ED008210C305DF047
:1021E000D5FE95F8D81040F2022311F0400F08BF39
:1021F0000323024688074CBF43F02C0043F00C0039
:102200008B0695F8D93048BF40F0400013F0090F15
:1022100095F8A23018BF40F4006003F00603CE0723
:1022200048BF40F01000062B08BF40F4C0700021EA
:102230005BF07CF82146002242F2010008F07AFAB5
:10224000044600287FF435AF95F87C30B5F80411CA
:10225000980624D4C9B941F205003A1D08F06AFA7B
:10226000044600287FF425AFB5F804317C684BB9EB
:10227000E368B3F80120A5F804219A882B48114699
:1022800072F056FA204611F073FB082140F6014027
:1022900008F014FA044660B96FF0680409E70029F1
:1022A000F3D10121224A23485BF011F86FF00404B6
:1022B000FFE608210C305DF069FE95F8D830024643
:1022C000D90729D44FF000511B485BF02FF8214665
:1022D000002240F6014008F02DFA044600287FF461
:1022E000E8AE01463A1D4FF6014008F023FA38B334
:1022F000124A02210F485AF0EAFF09F0C1FD0446D4
:1023000000287FF4D6AE0BF0EFFD044600287FF4E2
:10231000D0AE09F077F8CCE601A1D1E90001D4E70D
:102320009088000200800020D800002008010020D2
:10233000E1F50800588507001088000204F608003F
:102340007B686D46DC688AB0B4F80130032B96BF19
:10235000424A434952F823106A46D3614FF400734E
:1023600040481384404BC2E9050142F8103F4FF446
:1023700013513E485AF0C1FFB4F80120AD46022A7D
:10238000B4F8033048D1052B46D8394A52F8231007
:102390006D468AB06A46D3614FF4007335481384A2
:1023A000314BC2E9050142F8103F4FF413512F4859
:1023B0005AF0A3FFAD466379A679032B98BF2E4A46
:1023C000B4F80750D4F809006C468CB094BF52F8AA
:1023D000231023496A46C2E907364FF40073DFF839
:1023E0009CC09385264BC2E905C1C2E909504FF450
:1023F000735142F8103F1D485AF07FFFA546786898
:1024000011F0B6FA00214FF602403A1D08F092F999
:10241000044618B11B4A6CE71149B9E778681A4DB0
:10242000C368B3F80130A5F8C13011F0A1FA95F8EE
:10243000C1305B077FF561AF21464FF603403A1D7F
:1024400008F078F908B1114A53E77868C3685B78F7
:1024500085F8C03011F08CFA4FE700BF60A7080084
:10246000E4F3080028F6080004000001588507007E
:1024700048A7080041F6080038A7080059F60800E8
:102480000700000186F6080000000020AFF60800F3
:102490002DE9F04F8846D0F8201182460B6B164686
:1024A0008FB053B10622183106F1200047F0F4FF37
:1024B00018B901200FB0BDE8F08F504604A9D8F834
:1024C0006050D8F88040D6F8807068F095FC0028FD
:1024D00052D1DDF820B0BBF1000F04D1DDF81CB003
:1024E000BBF1000F27D042F20F71099B049A8B4277
:1024F0000AD16FF47A63D31840F2657293428CBFAD
:102500006FF058036FF05B034046ABEB030966F0D6
:102510006DFED8F88C20034608F194010AB9D8F86A
:102520009020D8F850005D46CDE9009050462CF040
:10253000BDFECB46044604F59C530833BB42B8D3DA
:10254000336DB3F57A6F1ADDD8F85030B3F57A6F82
:10255000ACBF4FF0000A4FF0010A002D12DB07F567
:102560009C5308339C4200F2CB80BBF1190F00F35F
:10257000C7804FF0020B3AE04FF0000BDBE74FF063
:10258000000AEAE7336E03EB4A03AB4215DA38463A
:10259000FDF724FF804620468946FDF71FFF4FF0D8
:1025A00033325B4BFDF794FF02460B4640464946EB
:1025B000FEF700FA002840F0A38007F59C5308338B
:1025C000A342C0F09D80BBF1190F00F3998015F173
:1025D000550F31DB15F1500FCBDB15F14B0F2EDB17
:1025E00015F1460FB4BF4FF0040B4FF0050B20461A
:1025F000FDF7F4FE804638468946FDF7EFFE0246B9
:102600000B46CDE902230022424BFDF761FF024653
:102610000B4640464946FEF7EBF998B10BF10A0B21
:10262000BAF1000F01D0ABF1020B306E401B5845E0
:10263000B4BF002001203DE74FF0010BD7E74FF07A
:10264000030BD4E74FF03332DDE90201304BFDF7E5
:102650003FFF02460B4640464946FEF7C9F910B116
:102660000BF1050BDCE728A3D3E90023DDE9020128
:10267000FDF72EFF02460B4640464946FEF7B8F9E5
:1026800010B10BF1020BCBE7BC4202D90BF1010BED
:10269000C6E700221F4B40464946FDF719FF024698
:1026A0000B46DDE90201FEF7A3F910B1ABF10A0B0D
:1026B000B6E74FF03332164B40464946FDF708FF68
:1026C00002460B46DDE90201FEF792F910B1ABF1CB
:1026D000050BA5E70CA3D3E9002340464946FDF7C7
:1026E000F7FE02460B46DDE90201FEF781F910B163
:1026F000ABF1020B94E7BC4238BF0BF1FF3B8FE715
:102700000020D7E6AFF300809A9999999999F13F03
:102710003333F33F0000F83FC1F30A5C02460B4637
:102720002DE9F041ACF2FF350C460646132D34DCA2
:10273000002D20DBDFF8D0800F4648FA05F801EACB
:10274000080C5CEA000C2DD02DA3D3E90023FDF783
:1027500009FD00220023FEF74BF940B1002C03DDF8
:102760004FF480132B411F4427EA0804002621461A
:102770003046BDE8F08122A3D3E90023FDF7F2FC47
:1027800000220023FEF734F90028F0D0002C33DBC0
:102790003443EBD000261D4CE9E7332D06DDB5F5BB
:1027A000806F26D010461946BDE8F081ACF2134C7C
:1027B0004FF0FF3727FA0CF73842F3D010A3D3E9D4
:1027C0000023FDF7CFFC00220023FEF711F90028BB
:1027D000CDD0002C334609DD142D06D0C5F13405CB
:1027E0000122AA4013449E4200D9013423EA07067D
:1027F000BDE7FDF7B7FCD7E700264FF00044B6E78A
:102800009C7500883CE4377EFFFF0F000000F03F1E
:10281000C1F30A5C02460B462DE9F041ACF2FF35EC
:102820000C460646132D32DC002D20DBDFF8E0805D
:102830000F4648FA05F801EA080C5CEA000C2BD0B8
:1028400031A3D3E90023FDF78DFC00220023FEF71E
:10285000CFF840B1002C03DA4FF480132B411F4412
:1028600027EA0804002621463046BDE8F08126A369
:10287000D3E90023FDF776FC00220023FEF7B8F829
:102880000028F0D0002C27DB00263446EBE7332D60
:1028900006DDB5F5806F1CD010461946BDE8F08105
:1028A000ACF2134C4FF0FF3727FA0CF70742F3D086
:1028B00015A3D3E90023FDF755FC00220023FEF702
:1028C00097F80028CFD0002C33460CDB23EA07060C
:1028D000C9E7FDF747FCE1E724F0004426430DD1AA
:1028E0004FF00044BFE7142D06D0C5F13405012296
:1028F000AA401344B342E9D20134E7E70026054C6D
:10290000B1E700BFAFF300809C7500883CE4377EE0
:10291000FFFF0F000000F0BFF8B5C1F30A560446F0
:102920000D4617460B462EBB21F00043034320D033
:102930002D4B0022FDF7CCFD2C4B04460D469F424B
:1029400041DBC1F30A560B46363EBA1940F2FE711E
:102950008A4217DC002A30DC12F1350F1EDB244ED0
:10296000363220461E40234B46EA02510022FDF734
:10297000AFFDF8BD40F2FF729642E6D10246FDF788
:10298000F1FBF8BD14A3D3E90023ED0F1A481C4650
:1029900065F3DF742146FDF79BFDF8BD05F00044AB
:1029A000164844F0D27141F4B7310DA3D3E90023A6
:1029B00041F01F01FDF78CFDF8BD0D4E20461E4075
:1029C00046EA0251F8BD06A3D3E90023FDF780FDD6
:1029D000F8BD00BFAFF300809C7500883CE4377EF3
:1029E00059F3F8C21F6EA50100005043B03CFFFF31
:1029F000FFFF0F800000903C9C75008859F3F8C2DF
:102A00002DE9F04F016C9BB016461F46279D0490A0
:102A1000CDE9026749B1426C0123044693404A6004
:102A20008B604FF08FFD00232364B7F10009C0F2E3
:102A3000B68000232B607E4B33EA090300F0BA8096
:102A40000022DDE90234184621460023CDE90801C1
:102A5000FDF7A6FF804668B10123269A1360289BE4
:102A600013B1744B289A1360DFF8CC8140461BB039
:102A7000BDE8F08F18AB0498019319AB0093DDE922
:102A8000082350F065F983465FEA195540F0A980A4
:102A9000DDE91885454405F23243202B40F34D8291
:102AA000C3F1400309FA03F905F2124326FA03F3CE
:102AB00049EA0300FDF792FC013D0123A1F1F87101
:102AC000109300225D4BFDF74BFB53A3D3E900238A
:102AD000FDF7FEFC52A3D3E90023FDF743FB0646B6
:102AE0000F462846FDF78AFC4FA3D3E90023FDF7E4
:102AF000EFFC02460B4630463946FDF733FB0646EF
:102B00000F46FEF7E1F9002282460023304639469F
:102B1000FDF750FF002840F00382A8EB0508BAF14A
:102B2000160F08F1FF33069300F2A781444E06EB1F
:102B3000CA06DDE90801D6E90023FDF73BFF0028BE
:102B400000F0848000230AF1FF3A0F9308F1FF336D
:102B5000002BC0F2998100230A93BAF1000F7BDAAF
:102B60000A9BCDF82CA0A3EB0A030A93CAF1000339
:102B70004FF0000A0E93249B092B77D8052B40F3C6
:102B8000E181043B00272493249B023B032B00F2AA
:102B90005986DFE813F05404510447042C04012340
:102BA00029F000492B60224BCDF80C9033EA090341
:102BB0007FF446AFC9F3130942F20F73269A59EA1C
:102BC000060913601DD0289BDFF87880002B3FF4A6
:102BD0004DAF08F10303289A404613601BB0BDE8CF
:102BE000F08FDDE90812CDF84080A5F2FF35C2F381
:102BF00013030846DDF8608043F07F5141F4401133
:102C00005FE7289BDFF84080002B3FF42FAF08F1EF
:102C10000803E0E7AFF3008061436F63A787D23F0B
:102C2000B3C8608B288AC63FFB799F501344D33FBB
:102C30000000F07F59CE080058CE08000000F83F91
:102C400070A00800F4CE0800E8CE0800B8F1000F2C
:102C500040F3B1840F900A90069BCDF82CA053440A
:102C6000069300230E93249B092B87D90023012769
:102C7000CDE924334FF0FF330C970793049B0021D9
:102C80005964079B119304984FF036FC0590002877
:102C900000F0E185079B0E2B8CBF002707F0010792
:102CA000DDE904321A64002F00F01B810B9A002A20
:102CB00040F34A81BC4E02F00F03D4054FEA2218BC
:102CC00006EBC303D3E9006740F17083B74B08F00C
:102CD0000F080325D3E90823DDE90801FDF722FDEC
:102CE000CDE91201B8F1000F12D0DFF8C09218F050
:102CF000010F08D0304639460135D9E90023FDF7E8
:102D0000E7FB06460F465FEA680809F10809EED1BD
:102D100032463B46DDE91201FDF704FD8046894657
:102D20000F9B43B10022A24B40464946FDF742FEAD
:102D3000002840F047842846FDF760FB42464B469A
:102D4000FDF7C6FB9B4B0022FDF70CFA079B0646DE
:102D5000A1F15077002B00F0AB80079B0B9C1293E6
:102D6000059B404612995D1CCDE914678E4E06EB1B
:102D7000C10353E90212CDE916124946FEF7A4F841
:102D800000F13007FDF73AFB02460B464046494644
:102D9000FFB2FDF7E5F989460C998046DDE9162377
:102DA000002900F00F8100208349FDF7BBFCDDE91D
:102DB0001423FDF7D5F9059E42464B46377006466B
:102DC0000F46FDF715FE002840F02F850023CDF8B3
:102DD00058A0CDF850B09A46DDF848B012942BE0D8
:102DE0000AF1010ADA4580F2BD84304639460022F4
:102DF000724BFDF76DFB0022704B06460F464046B6
:102E00004946FDF765FB89468046FEF75DF80446B6
:102E1000FDF7F4FA02460B46303440464946FDF7CA
:102E20009FF932463B4605F8014B80468946FDF73F
:102E3000C1FD002840F09C8442464B4600205C497E
:102E4000FDF78EF932463B46FDF7B4FD0028C7D0AA
:102E5000DDF850B02F46129C059902E08F4200F039
:102E60005F843A4617F8013D392BF7D00133DBB2C6
:102E70003B70DDF8148005926BE101230F9308F19C
:102E8000FF33002BBFF667AEC8F101030A9300239E
:102E9000069362E62846FDF7B1FA42464B46FDF737
:102EA00017FB0022434BFDF75DF90646A1F1507771
:102EB000404649460022424BFDF752F932463B4616
:102EC00080468946FDF794FD002840F0AD834046DA
:102ED0004946324607F10043FDF76CFD002840F0FB
:102EE000D5810B9A199B0E2A02DC002B80F2AD8152
:102EF0000C9A002A00F0B580249A012A40F38583B9
:102F0000079A0E9B551EAB42C0F2C782002AA3EB64
:102F1000050580F25B840A9B079AA3EB0208C9E2CD
:102F20005046FDF76BFA32463B46FDF739FD002867
:102F30007FF4F3AD0AF1FF3AEFE5C3F1200306FA9F
:102F400003F0B7E501271FE600F0A3820B9B164EA6
:102F50005D4205F00F0306EBC303DDE90801D3E989
:102F60000023FDF7B5FA2E11CDE9120100F05284CD
:102F70000E4C0023022580468946F00709D54046BD
:102F800049460135D4E90023FDF7A2FA3B468046C5
:102F90008946761004F10804EFD1002B7FF4C0AE0F
:102FA000DDE91289BCE600BF70A0080048A0080057
:102FB0000000F03F00001C400000E03F0000244003
:102FC00000001440DDE91401FDF782FA059B1F7033
:102FD000129B012BCDE90C0100F00984129F059B87
:102FE000CDF840A01F440022AA4B40464946FDF7B9
:102FF0006FFA89468046FDF767FF8246FDF7FEF9C6
:1030000002460B460AF1300A40464946FDF7A8F849
:1030100005F801ABAF4280468946E4D1DDF840A017
:1030200000229D4BDDE90C01FDF79CF842464B4622
:10303000FDF7C0FC002840F07B8300209649DDE9C5
:103040000C23FDF78DF842464B46FDF7D1FC0028D6
:1030500040F01982199B002B03DB0B9B0E2B40F3D6
:10306000F58000230E9DDDF828801E460C93B8F1F4
:10307000000F0DDD069900290B4609DD41450A9A2E
:10308000A8BF4346D21AA8EB0308CB1A0A920693AC
:103090000E9B53B10C9B13B1002D40F01E8259467C
:1030A0000E9A04984FF036FC8346012104984FF0A5
:1030B00051FB0746BAF1000F40F06381249B012BBE
:1030C00040F37A81012306990B4413F01F0308D0C3
:1030D000C3F12002042A00F3B5810AD0C3F13C03F6
:1030E00000E01C230A9A98441A440A92069A1A4449
:1030F00006920A9B002B05DD59461A4604984FF0AC
:1031000063FC8346069B002B05DD39461A4604986E
:103110004FF05AFC0746249B022B0F9BD4BF00257F
:103120000125002B40F0BE80079B002B24DC1DB343
:10313000079B002B00F08F81259BDDF81480DC437A
:10314000394604984FF0FEF91EB1314604984FF00D
:10315000F9F9594604984FF0F5F900220599631CD6
:103160000A70269A1360289B002B3FF47FAC4046E0
:1031700019601BB0BDE8F08F0C9B002B00F0AF80F6
:10318000B8F1000F00F3C081BAF1000F40F0D38214
:10319000B146059D079C6B1E1C44029B089403F0DE
:1031A0000103049C0A93394658464EF043F93146D0
:1031B000824658464FF07CFC4A46394680462046B7
:1031C0004FF096FCC26801460AF13003002A40F035
:1031D000A281CDE9060358464FF06AFC0699069095
:1031E00020464FF0AFF9249B069A52EA0301079B51
:1031F00040F0C2810A9A002A00F0F282B8F1000F72
:10320000C0F2AD81089AA846AA4208F8013B00F036
:10321000D282594600230A2220464FF09DF94E459E
:10322000834631464FF000034FF00A02204600F07B
:103230009D814FF091F94946064600230A22204617
:103240004FF08AF945468146ADE7144E0B9B06EBDD
:10325000C306D6E90034CDE90234259B002B80F269
:10326000E881079B002B00F3E481079B73B90022E0
:103270000B4BDDE90201FDF72BF902460B46DDE9B8
:103280000801FDF7A1FB002800F0CE8100273E4693
:1032900052E700BF000024400000E03F70A008009B
:1032A00000001440394658464FF002FC0028BFF693
:1032B0003BAF0B9B59460A220498013B0B9300231A
:1032C0004FF04AF90C9B8346002B40F09282119BF1
:1032D000002B119B079302DC002D7FF429AFDDF852
:1032E00014800125079CDDF8109007E05946002363
:1032F0000A2248464FF030F9013583463946584690
:103300004EF098F8A54200F1300308F8013BEDDBE0
:10331000079A0025002ACCBF90464FF00108059A75
:10332000904459460122049802934FF04DFB3946D0
:1033300083464FF0BDFB002840F3E481059A02E08C
:10334000904500F0D48118F8013CC24608F1FF38DE
:10335000392BF5D001330B9C88F80030394604989E
:103360004FF0F0F8002E00F0C8812DB1B54203D027
:10337000294604984FF0E6F8DDF81480CDF814A043
:10338000E3E60146524604984FF0C4FA249B0746F0
:10339000012B40F395804FF0000A3B6907EB830354
:1033A00018694FF083F9C0F120038CE6DDE9083499
:1033B0000225CDE9123495E4029B002B7FF482AE06
:1033C000DDE90212C2F31303002B7FF47BAEAD4B99
:1033D000134033B10A9B01330A93069B01330693D2
:1033E0000123BAF1000F40F0F9819A466AE6012301
:1033F0000C93259B0B9A134411930133012B1D460B
:103400000793B8BF0125172D40F31382012204232F
:103410005B001146013203F11400A842F8D9049B65
:10342000596430E401230C93259B002B40F3BE80AC
:103430001D4611930793E6E700230C93D9E7002379
:103440000C93F1E7C3F11C030A9A19441A449844F7
:103450000A9206914DE63946052204984FF07CF811
:103460000746584639464FF023FB00287FF764AEE5
:10347000DDF81480059B0B9C013301340593312347
:1034800088F800305CE63A4617F8013D302BFAD058
:10349000EFE40225DDE9088942E40E9B0E95EB1A64
:1034A00000259A44DDE90632134406930A9B9846A8
:1034B00013440A93012104984FF04CF90646D6E5CF
:1034C000029B002B7FF467AFDDE90201C1F3130318
:1034D0000A46002B3FF47BAF5DE7049C31462A4649
:1034E00020464FF017FA06465A46204631464FF01E
:1034F0005FF95946834620464FF024F80E9B5B1B2C
:103500000E933FF4D2ADCAE53146424604984FF0DF
:103510005BFA064638E6049806934FF013F8B8F1C4
:10352000000F069B08DB029A249902F0010248EA88
:10353000010852EA08022ED159460122049802934A
:103540004FF042FA394683464FF0B2FA0028029B08
:1035500040F36581392B00F031810AF13103AA462D
:103560000B9C35464E460AF8013BF7E64EF0F4FF59
:1035700045460646814616E6B8F1000FC0F25E8168
:10358000249948EA01080A9951EA080800F056818E
:10359000002A7FF737AE392B00F01081AA4601339D
:1035A00035460B9C4E460AF8013BD7E6012325938E
:1035B0000793FFF763BBC8F1010306900F900A93CE
:1035C000FFF74ABB079B002B3FF464AC119B002B19
:1035D0007FF787AC0B9A404649461293541E2A4BFC
:1035E0000022FCF775FF80468946681CFCF706FF41
:1035F00042464B46FCF76CFF0022244BFCF7B2FD21
:103600000646A1F15077FFF7ABBB109A002A00F0F5
:103610008B8003F23343069A0E9D1A4406920A9A4F
:1036200090461A440A9245E70027DDF814803E468A
:1036300020E7DDE90889DDE9022340464946FDF738
:1036400071F8059FFDF740FC0546FCF7D7FEDDE964
:103650000223FCF73DFF0B46024649464046FCF775
:103660007FFD05F1300307F8013B079B012B00F0BC
:103670008980CDF818B00126DDF81C90DDE902AB99
:1036800022E000BF0000F07F0000244000001C404A
:1036900052465B4620462946FDF744F80136FDF7C1
:1036A00013FC8046FCF7AAFE52465B46FCF710FF6F
:1036B0000B46024629462046FCF752FD08F130032E
:1036C000B14507F8013B5AD00022704BFCF700FFD0
:1036D0000022002304460D46FDF762F90028D7D0EA
:1036E000DDF818B0DDF814800B9C059731E50B9CD4
:1036F0003123059A0134137030E6DDF81480CDF8DB
:1037000014A026E503D1029BDB073FF517AE18F89E
:10371000013CC24608F1FF38302BF8D00B9C1DE667
:1037200001343123FFF7A4BB189BC3F1360372E7C2
:103730000599FFF796BB716804984EF0DDFE0546CB
:10374000002800F08F80336906F10C010C30023341
:103750009A00FDF74FFA2946012204984FF034F9F8
:10376000814616E5DDF858A0DDF850B0FFF7B9BB8B
:10377000DDF81480DDF850B0129C0595E9E4DDF821
:1037800018B0454602460B46FCF7ECFC80468946DD
:10379000DDE90223FDF72CF948B940464946DDE949
:1037A0000223FDF7FDF800289CD0E9079AD50B9C71
:1037B0000599FFF756BB35464E46B2E5A846392374
:1037C0003546059A4E4608F8013BBCE5069B134476
:1037D00006930A9B984613440A936BE69A46DCE5E7
:1037E000392BEBD0B8F1000F3FF7B7AEB7E62F4655
:1037F00016E4314600230A2204984EF0ADFE119BD8
:103800000646002B119B07933FF7BAAC002D7FF4BF
:103810008FACB5E4DDE912890225FFF781BA7FF4A8
:103820009EAEDA077FF59BAE94E6DDF81480059531
:103830008FE40021049B5964FFF725BA002A3FF763
:103840007BAE8CE6049B0025184629465D644EF04D
:1038500053FE059068B90E4B00224FF4D5710D4808
:1038600046F098FD02460A4B40F2EA21094846F02C
:1038700091FDDDE9043225951A644FF0FF330122F2
:1038800011930C920793FFF72CBB00BF000024405C
:10389000F8CE08000CCF08002DE9F04F1C46794BFC
:1038A0009FB00E4600258346186807921A95089027
:1038B00047F0D2FB0021024633460020CDE9040147
:1038C0009846199313F801ABBAF12D0F5ED801A1F8
:1038D00051F82AF06B3A00008D3900008D39000054
:1038E0008D3900008D3900008D3900008D390000C0
:1038F0008D3900008D390000C1380000C13800004A
:10390000C1380000C1380000C13800008D39000006
:103910008D3900008D3900008D3900008D3900008F
:103920008D3900008D3900008D3900008D3900007F
:103930008D3900008D3900008D3900008D3900006F
:103940008D3900008D3900008D3900008D3900005F
:103950008D390000C13800008D3900008D3900001C
:103960008D3900008D3900008D3900008D3900003F
:103970008D3900008D3900008D3900008D3900002F
:103980003F4000008D39000059400000002309939A
:10399000BAF1300F00F0688200230A93AAF13003D5
:1039A000092B00F25684002740463D463C46013034
:1039B000082C07EB870104F1010405EB850C199035
:1039C00090F800A0CCBF03EB410703EB4C05AAF134
:1039D0003003092BEBD90899089247F06BFB089A42
:1039E0008146002850D1199B0146089498181990D7
:1039F0009B5CA3F13002092A00F2F0820131924669
:103A00001998002A40F0F884431C19934378F0E792
:103A10004FF0010EB31C1993B378A3F1300CBCF135
:103A2000090F00F2F582199A302B0B9240F02B838C
:103A3000013219921378302BFAD0A3F131000B9296
:103A4000082840F21E8300220C9254BB0A9A0A43B3
:103A500040F09882BAF1000F07D1692B00F039834A
:103A600040F318826E2B00F01B82079B4FF000087A
:103A70004FF0000903B11E60404649461FB0BDE843
:103A8000F08F00BF70D108002AF0200200215346B9
:103A90000894452A89468A4600F0AD820C91002C94
:103AA000D4D0089A2846A2461346002A08BF2346C7
:103AB0000893FCF793FC0B460246102CCDE9042337
:103AC0000C9BA8BF4FF0100A092CA3EB09030B9322
:103AD00017DD544B03EBCA0353E91223FCF7F8FC40
:103AE000024638460F461646FCF778FC02460B465F
:103AF00030463946FCF736FB0F2CCDE9040100F3C4
:103B0000E1810B9B002B00F097820B9B40F3A78277
:103B1000162B40F39A84C4F125030B9A934280F24A
:103B2000DA84A4EB0A06164416F00F000AD03D49C9
:103B300001EBC001DDE90423D1E90001FCF7C8FC79
:103B4000CDE9040136F00F034ED0B3F59A7F00F3B0
:103B50004684102B4FEA231640F3B285DFF8C8E005
:103B60004FF0000CCDF828907746E246F146DDE9AB
:103B7000042316F0010F104619464FEA66060AF1B3
:103B8000010A07D0D7E90023FCF7A2FC4FF0010C93
:103B900002460B46012E07F10807EAD1CE46DDF8B2
:103BA0002890BCF1000F01D0CDE90423059B0EEB5A
:103BB000CA0E1E4EA3F154730593DDE90423DEE91A
:103BC0000001FCF785FC1A4B0A460B40B342CDE9D5
:103BD000040100F2048417498B4240F2FE844FF046
:103BE000FF33154ACDE9043200230A932346089A8D
:103BF0004146584600954EF001FD1590002800F012
:103C0000EE830B9A4FF0000A0C9B002ACDF820A0FF
:103C1000A9EB0303A8BF00230C9322EAE2731493D9
:103C2000E2E000BF70A0080048A008000000A07CEF
:103C30000000F07F0000907CFFFFEF7FD21A1F2A68
:103C4000A4EB020400F3C6820123002593409846AA
:103C500026443C440A9BA7421E443B46A8BF234639
:103C6000B342A8BF3346002B02DDE41AF61AFF1A4E
:103C70000C9B002B00F35482002C00F36A820B9BF8
:103C8000002B00F39D82002E00F38E82002F08DDB2
:103C900051463A4658464EF097FE8246002800F0BC
:103CA0008C824A461A9958464EF022FF0890002806
:103CB00000F08382089A0023D168D3600D915146A9
:103CC0004EF0F6FE0028C0F2C584059F00F0228465
:103CD000514608984FF09CF800224FF0804304466C
:103CE0000D46FCF771FE002800F00A820D9B002BA8
:103CF00040F07C82049B002B40F06183C7F31303E8
:103D0000002B40F0E6820022AB4B20462946FCF710
:103D100051FE002840F0F5832046A84B294600229A
:103D2000FCF7D6FB03460C460E90CDE9123401F1A8
:103D300000430F93A24EA34B3E409E42DDE90E4549
:103D400000F05B820A9B23B3B6F1D46F21D8DDE982
:103D5000127897A3D3E9002338464146FCF734FE96
:103D6000A0B141463846FCF74DFE012838BF01207E
:103D7000FCF734FB0D9BCDE91201002B40F037839B
:103D800001F1004316901793DDE9164505F1D6635E
:103D90009D1BDDE91078384641464EF059FF02463A
:103DA0000B4620462946FCF793FB3A464346FCF770
:103DB000D9F90C46CDE90401814B2340B34203D12C
:103DC0000A9B002B00F08E821A9958464EF0BAFBDF
:103DD000494658464EF0B6FB514658464EF0B2FBA7
:103DE000089958464EF0AEFB159C584661684EF057
:103DF00083FB8146002800F0E081226904F10C0178
:103E00000C3002329200FCF7F5FE1CAB58460193D1
:103E10001BAB0093DDE904341A46CDE91034234688
:103E20004EF096FF1A90002800F09C810121584620
:103E30004EF090FC8246002800F0BF811B9B002BB7
:103E4000C0F2AE810C9A149E9F180A9A1C9C9B1A71
:103E50005D4A2344C4F13604013B9342FFF6EEAEC3
:103E6000012300259846F3E698F8013003F0DF03BC
:103E7000582B00F0758243460133199393F800A044
:103E8000BAF1300FF8D09846BAF1000F7AD001237A
:103E90000A9383E5492B00F01C814E2B7FF4E5AD9E
:103EA0004A4919A850F022F900283FF4DEAD199BC9
:103EB0001B78282B00F07E83454850F023FA80467B
:103EC000894663E0A4EB0A060B9B1E44002E3FF7D5
:103ED0002BAE3FF489AE764216F00F020AD03D4B6E
:103EE00003EBC203DDE90401D3E90023FCF71AFC6C
:103EF000CDE9040136113FF477AE1F2E3FDC16F0FA
:103F00001003354F4FF0000C18BF6A230A93DDE908
:103F1000042316F0010F1046194607D0D7E90023F5
:103F2000FCF7D6FA4FF0010C02460B46761007F16B
:103F30000807EED1BCF1000F01D0CDE904230A9BA4
:103F4000A3B1DDE90401C1F30A52C2F16B03002BF6
:103F50000ADD1F2B40F3FA830020342B049040F33A
:103F600021844FF05C7305936A230A930022002397
:103F7000DDE90401FCF714FD00283FF437AE2223ED
:103F8000CBF800304FF000084FF00009079A0AB153
:103F9000199B1360099B002B3FF46EAD09F10043A0
:103FA0004046994649461FB0BDE8F08FAFF3008008
:103FB0000000C0FFFFFFDF410000F03F0000E03FD6
:103FC0000000F07F0000E07F02FCFFFFE4CF08006C
:103FD0007CDA080070A0080038A108004FF0010A40
:103FE00023F02002452A7FF42EAD44EA01030A9A09
:103FF00013433FF43AAD199E731C199373782B2B1E
:1040000000F023812D2B3FF403AD4FF0000E04E5AB
:10401000002219960C9218E51C9A03F2334304927D
:104020001D9A22F4801242EA03530593210703D517
:10403000059B43F000430593DDE90489A6E70023CF
:10404000099308F10103199398F801A0BAF1000F40
:104050003FF40BAD98469BE401230993F1E7163337
:10406000FFF630AF0C9BA9EB0309B34B03EBC9037D
:10407000DDE90401D3E90023FCF754FB80468946BF
:1040800084E7A3F1300C0B9B581C19905B78A3F1CB
:104090003002092A00F2D18101300CEB8C0C19900E
:1040A00003EB4C0C0378ACF1300CA3F13002092A7D
:1040B000F2D90B9A801A082840F3BF8144F61F6298
:1040C0000C92BEF1000F3FF4C0AC0C9A52420C921D
:1040D000BBE49A4919A850F009F800283FF4C5AC90
:1040E000199B19A89649013B19934FF0FFFF10B98E
:1040F000199B013319934FF00008DFF8489245E708
:10410000914B204629460022FCF7E2F90D9BCDE9B0
:104110001201002B65D101F100430E900F9309E6C7
:1041200051461A4658464EF0F5FB8246002844D0C8
:1041300001461A9A58464EF03BFB00283DD00D90A0
:1041400058461A994EF0FEF90D9B002C1A937FF7F2
:1041500096AD22461A9958464EF036FC1A90002821
:104160007FF48DAD4F46054622234FF00008DFF85F
:10417000D491CBF80030294658464EF0E3F9394641
:1041800058464EF0DFF9514658464EF0DBF9159986
:1041900058464EF0D7F9089958464EF0D3F9F5E64F
:1041A000149A0C9FD61A50E64946324658464EF0AD
:1041B0000BFC814600287FF469AD4F461A9DD3E77A
:1041C0004946149A58464EF0A5FB814600287FF4D4
:1041D0005AADF2E75D4AD31A012202FA03F590467E
:1041E00036E5DDE91234CDE90E34A3E50023584C61
:1041F000CDE90E34CDE912349CE5A7F15473514F4B
:104200000593DDE90445204629464EF021FDDDE910
:104210000E23FCF75DF92B462246FBF7A3FF4D4B1F
:104220000F409F42CDE9040140F2DD8003F1547359
:10423000DDE91001994202D1B0F1FF3FBDD04FF04E
:10424000FF33454ACDE90432BEE54FF0000EFFF7DB
:10425000E1BB089940460B9246F02CFF0B9A089060
:1042600048B10022534617469246154611469146DC
:1042700014460892B4E6199B981819909B5C302B51
:1042800040F0278102461146013219921378302BF3
:10429000F9D0C0F101000144A3F13102082A10D87D
:1042A000DDF864800025A3F1300A01F10109012441
:1042B00040462F4605EB850500210AEB4505FFF733
:1042C000A3BB4FF000094FF0010A4C464F464D4644
:1042D00086E60023214CCDE90E3400231C4CCDE9A9
:1042E000123427E5DDE91256C4F313072846314698
:1042F000FDF7B0FCFCF7BEF802460B4628463146F7
:10430000FBF72EFF049D0D9E04462E430D463743BA
:1043100043D107A3D3E90023FCF74CFB00283FF46B
:1043200053AD4F461A9DDDE9048924E7AFF30080C1
:104330009535A094FFFFCF3F70A00800D8CF0800AC
:10434000DCCF08000000F07F0000E03FE2FBFFFF51
:104350000000F03FFFFF9F7CFFFFEF7F0000F0BFFA
:10436000099B19A90294584601931AABB04A0093CD
:104370001BAB4FF0BFFB10F0070504463FF402AE45
:10438000062D7BD1079A12B108F1010313604FF09B
:1043900000084FF00009FFF76FBBA1A3D3E900238A
:1043A000FCF708FB0028BCD1204629469EA3D3E990
:1043B0000023FCF71DFB00283FF406ADB1E7049B8A
:1043C000012B86D1002F84D14F461A9C22232546EB
:1043D0004FF000084FF00009CBF80030CBE6222365
:1043E000CBF8003087E601F154740594E4E4DDE98C
:1043F0001234CDE91634C7E4012900F0138204EB2E
:10440000010E0EF1FF3CCDF82CE003E04FEA4E0523
:10441000A4450BD0082C05EB850E04F10104F5D959
:1044200007EB8703102CD8BF5F00F1E7DDF82CE025
:10443000082C894416DC74463CE744F61F62944518
:10444000A8BF9446CDF830C03BE60B98794901EB04
:10445000C001DDE90423D1E90001FCF739F8804609
:10446000894693E5BEF1100F74464FF00001DCBFA2
:1044700007EB870702EB4707FFF7C6BA1A9A3AB16C
:1044800035211CA84EF0EEFC58461A994EF05AF809
:10449000013D1B9B042D3FF6C9AD01A252F825F04A
:1044A00019400000C9440000C3440000B5440000A6
:1044B000194000004FF0FF336FF00040CDE90430A9
:1044C000B4E55D4B0593B1E51C9B04931D9B0593DF
:1044D000ACE50899E0E6C4F10F04564D05EBC401C4
:1044E000DDE90423D1E90001FBF7F2FF0B9B1C1B64
:1044F00005EBC405D5E90023FBF7EAFF80468946B2
:1045000044E500234D4CCDE90E3400234C4CCDE95D
:1045100012340FE43B460D98C4464F46AE46494917
:10452000C3F31302DDE9108900285BD08A4200F052
:10453000FB80B5BB049A1CEA020F35D040464946C1
:1045400004934EF085FB0A9B04460D46002B00F0B9
:104550001F81049BC3F30A53C3F16B06002E40F383
:104560006481394C002204EB0653FBF7B1FF02468D
:104570000B4640464946FBF7F5FD1A9C80468946A6
:1045800040464946314B0022FBF7A2FF0B46254629
:104590008046034389467FF4EEAD2223CBF80030FA
:1045A000E9E51EEA030FC9D11A9C0A9B2546002B98
:1045B000E6D1E0E519A81CAA25494FF0B1FD052870
:1045C0007FF47AAC1D9B43F0FF4343F4E003059373
:1045D0001C9B0493DDE90489D8E402F1547305932C
:1045E000FFF702BB002A71D1DDE904452246002C09
:1045F00040F0B4800A9A002A40F0F08025F0004490
:10460000240D2405A4F580141A9D6FEA14536FEA53
:10461000035305934FF0FF330493DDE90489AAE5C2
:104620009535A094FFFFDF3F35E5AF350000E03F53
:10463000FCCF080070A008000000F07F0000E0BF81
:104640000000E03FFFFF0F000000F03F0000503986
:10465000E8CF08000D9B4F46DDE90401DDE9108934
:104660000343A1D1C1F31303002B9DD121F00044DA
:10467000240D2405B4F1D66F264695D9089A5369BE
:1046800013B91369012B8FDD0899012258464EF0AA
:104690009BF9514608904EF00BFA002884DD0A9BE6
:1046A000002BAFD0A6F580131A9C6FEA13536FEA64
:1046B000035305934FF0FF330493DDE904895FE76B
:1046C0004FF0000ADFF87CE1FFF770BA002D48D107
:1046D000049A1CEA020F3FF467AF40464946049330
:1046E0004EF0B6FA0A9B002B40D0049BC3F30A534A
:1046F000C3F16B06002E40F3A280534C002204EB62
:104700000653FBF7E5FE02460B4640464946FBF7DB
:1047100027FD0022002380468946FCF741F9002846
:104720007FF453AE1A9C2BE7DDE904010A9A044694
:10473000002A40D1024601326DD0BEF1000F7FF455
:1047400030AF14EA0C0F3FF42FAFF7E64FF0FF3213
:1047500002FA03F3049A1A40049205E4BEF1000F32
:10476000B7D01EEA030F3FF41FAFB6E702460B4671
:1047700040464946FBF7F4FC1A9C00220023804681
:1047800089462546FCF70CF900283FF4F4AC1DE6F9
:10479000404649462B462246FBF7E4FC1A9D8046DC
:1047A0008946E8E4C2F14B024FF0FF3393400B40DF
:1047B0000593FFF7D9BB254A1A40B2F1D46F21D92E
:1047C000611CBAD122498B423FF4F8AC02F5801348
:1047D000059300230493DDE90489E5E61B4E1E40A2
:1047E000B6F1D66F3FF65EAF1A9DB6F15C7F2C46F0
:1047F0003FF6C6AE22234FF000084FF00009CBF879
:104800000030B8E4100D4FF0FF31C0F16B00814073
:104810008C4292D1DAE70E4A93423FF4CFAC013298
:104820001A40D3E704F1010E02E64046494622460B
:104830002B46FBF797FC1A9C80468946A0E6024669
:104840000B4662E748A008000000F03F0000F07F40
:10485000FFFFEF7F000000002DE9F04F01298446A3
:104860008E4687B064D8002942D033A3D3E9002311
:1048700033A7D7E9006734A5D5E900450FF2D00B7F
:10488000DBE900AB34A1D1E90001CDE9042334A375
:10489000D3E90023CDE9002333A3D3E90023CDE9F5
:1048A000022333A3D3E900234FF000084FF000099F
:1048B000CCE90A01DDE90401CCE90C01DDE90001E4
:1048C000CCE90E01DDE90201CCE910010020CCE9C0
:1048D0000089CCE90289CCE90467CCE90645CCE93A
:1048E00008ABCCE91223CCF8D0E007B0BDE8F08FDC
:1048F00021A3D3E9002322A7D7E90067CDE9042348
:1049000021A5D5E9004522A3D3E900230FF2880BA6
:10491000DBE900ABCDE9002321A1D1E9000122A30D
:10492000D3E90023CDE9022321A3D3E90023BBE788
:104930006FF07400D9E700BF310BC0FF6726336703
:10494000D89E05C15D9DBBCB07D57C362A299A62CE
:1049500017DD70305A01599139590EF7D8EC2F15DF
:1049600011155868874AB48EA78FF9640D2E0CDB99
:10497000A44FFABE1D48B547D182E6AD7F520E5115
:1049800008C9BCF367E6096A3BA7CA8485AE67BB62
:104990001F6C3E2B8C68059B2BF894FE72F36E3CCB
:1049A000F1361D5F3AF54FA56BBD41FBABD9831FB7
:1049B00079217E1319CDE05B014856F0A2BD00BFFE
:1049C0002EDD080010B50C46074856F09AFD6288A7
:1049D0002188064856F095FDE288A188044856F0E3
:1049E00090FD012010BD00BF41DD080071DD080011
:1049F0009DDD080038B50025054C064856F081FDC0
:104A0000054B20681D7010B108F042FC256038BDD0
:104A1000E4520020F5DD0800C881002030B50C46C6
:104A20008BB0054628220021684645F0E5FD34B1EB
:104A3000022C0ED02146154856F063FD09E0144CB7
:104A4000236843B1134856F05CFD1321284659F002
:104A50000DF90BB030BD284658F0C8FF69462060FC
:104A600008F0E4FF014608B10B48E5E79DF80110A6
:104A70000A4A0B4B0B48002914BF1146194656F041
:104A800040FDBDF814100848D6E700BF26DE080038
:104A9000E452002046DE0800D3DD08001BDE0800DB
:104AA00013DE080077DE080088DE080008B5044839
:104AB00056F027FDBDE80840024844F00FB800BF9B
:104AC000A4DE0800201B002070B503788AB00446DD
:104AD0000E4607AD032B20D8DFE803F002191B1D9B
:104AE0001149284646F05AFA059563781E21049329
:104AF000A37830460393E3780C4A02932379019319
:104B000063790093A37956F009FD0AB070BD084996
:104B1000E7E70849E5E70849E3E70A212846074AA5
:104B200056F0FCFCE0E700BFECDE08000EDF0800FA
:104B3000F3DE0800FADE080004DF0800D50B0900E8
:104B400010B51446036888B018686946FFF7BCFFC3
:104B500022466946024856F0D4FC08B010BD00BF9A
:104B600031DF080013B50A4C23787BB1CB880948A4
:104B700000938B884A88098856F0C3FC0023237071
:104B8000054802B0BDE8104043F0A8BF02B010BD18
:104B9000C98100205FDF0800201B002008B50B46FC
:104BA0000A785B78042A96BF0849094951F822100F
:104BB000042B96BF054A064A52F82320054856F0B2
:104BC000A0FCBDE80840044843F088BFE0A308000B
:104BD000A1DF0800A9DF0800201B0020F0B5204E4F
:104BE00089B034782CB11F4809B0BDE8F04056F0C8
:104BF00088BC1D4FC8B11D4856F083FC01232046D8
:104C00003B7002F0AFFF014610B1194856F079FC35
:104C10000123184833701DF0F5FC0146F0B1164829
:104C200009B0BDE8F04056F06CBC144D144803AC1C
:104C300056F067FC0FCD0FC42B6812492360012387
:104C40000222009303A8104B07F070FB014610B13D
:104C50000E4856F056FC00233B70D9E709B0F0BD72
:104C6000C6810020CFDF0800C781002000E00800D7
:104C70001DE008003008002084E00800C487070019
:104C800040E0080048A4080040A4080063E00800D1
:104C90002DE9F041374E8AB0074688461546002177
:104CA0002822684645F0A8FC6946306808F0BEFE38
:104CB000044638B10146304856F023FC20460AB07D
:104CC000BDE8F0814146306858F0B4FF044610B1A9
:104CD00001462A48F0E72A4856F013FC4FF42022F8
:104CE0000023284843F020FF044618B1264856F018
:104CF00008FCE3E7089B1A882B889A421DD0012202
:104D0000224B294630681A7058F084FF054628B1B6
:104D100001461F4856F0F5FB2C46CFE71D4856F0DC
:104D2000F0FB4FF420220023164843F0FDFE054619
:104D300018B1194856F0E5FBEEE7BDF814207B8862
:104D40009A42BBD03946306858F0F2FF054610B1A0
:104D500001461248DEE7124856F0D3FB4FF42022FA
:104D60000023084843F0E0FE05460028A6D00D4881
:104D7000E0E700BFE45200209EE00800BFE008002A
:104D8000D6E00800201B0020EAE00800C9810020CE
:104D9000FDE008001EE108003DE108005BE10800BD
:104DA00083E10800A8E108002DE9F04F054689B02D
:104DB0001F4856F0A6FBDFF87C801F4CD8F8003067
:104DC0006BB300241D4856F09CFB2646DFF870A00C
:104DD00055F82490DAF800304846019346F03CF943
:104DE000074618220021D8F800B002A845F004FCBC
:104DF000019B02A95846CDE90339ADF814700BF0B8
:104E0000B9FF55F824100F4856F07BFB013446F1EA
:104E10000006E31E3343DBD100242646D8E72046B4
:104E200056F06FFB0021A42044F0BAFCC6E700BF97
:104E3000CDE10800E4520020E6E108000DE20800A0
:104E4000E05200202BE20800F0B500208FB006F001
:104E500083FB044630B10146384856F052FB2046E9
:104E60000FB0F0BD364809AD56F04BFB2146142279
:104E7000284645F0C1FB4FF010120123CDE90A325C
:104E80008DF808302F4B01A80393019502F038FEEE
:104E90002D4802F0F9FC04AA16462C4B03F110072A
:104EA000144618685968083303C4BB422246F7D138
:104EB0001B7831460320237002F0F6FC014660B3F4
:104EC000234856F01EFB00201DF0DEFB60B3214896
:104ED00056F017FB204856F014FB00214FF4203009
:104EE00044F05EFC0120FFF779FE1C4856F009FBF8
:104EF0001B4C2368E3B14FF050124FF07A73CDE9A9
:104F00000923A3F1F3730193164B3246284601A9F6
:104F10000493FFF7BDFE0446A1E7042002F026FD3E
:104F20000028D0D01048CCE710481DF04DFBD1E749
:104F300000214FF4804044F033FCDAE73DE2080002
:104F40005DE20800A817002038080020B08707009D
:104F500074E20800B1E20800D1E2080011E30800A1
:104F6000E4520020FB00904294E208003008002048
:104F7000014B1878704700BFC7810020B0B50024EE
:104F800000AF2B4856F0BDFA2A4B214601201C7079
:104F900041F0DAFD284B294A1B686D468AB0B3FB05
:104FA000F2F36A46264951612649C2E906134FF4D5
:104FB00000731384244B42F8103F4FF413512346DF
:104FC000224802F003F9AD4600214FF4004044F0BE
:104FD000E7FB03211E4A1D4857F025FAFFF734FF6F
:104FE000044603211B4A194857F01DFA7CB10121E0
:104FF0002346194A154857F01FFA184C204656F018
:1050000080FA00214FF4004044F0CAFBF6E7FFF7B6
:10501000AFFF50B1124856F074FA1248FFF7C4FEC1
:105020000E4C204656F06DFAFBE70F48F3E700BF41
:105030005CE30800CA810020D014002040420F0029
:105040006BE3080092E3080004000001C08507003C
:105050009CE30800ABE30800BFE3080011E408008C
:10506000DCE3080048080020F5E308002DE9F04FD4
:1050700091B0009302F004030293C2F3C203013320
:10508000840705460E46DDF868900392059340F0CC
:10509000BB81041D30B1072909D86FF01B0011B086
:1050A000BDE8F08F01F00706341DC6F10806009B2D
:1050B0004FF000084FF0040A591E4FF0FF334746E7
:1050C0000193C3465346CDF810800DB1009A22607B
:1050D0000598002800F3E8809848009A824203D39C
:1050E00097488242C0F0E080039AA4EB050E920735
:1050F0004FEA9E0000F103810F2F00F2B180002DD6
:1051000000F0058107F140020DEB020C019A0CF84A
:10511000200C0CF8102C049801300490E7E07A2859
:105120005DD84B280ED8472859D829282DD82528AE
:1051300052D054D820287AD02338D0F1000B4BEB32
:10514000000B74E04C382E2849D8DFE800F0704896
:10515000484848484848484848484B4848484848CC
:1051600048484859484B4B595959704B6D487048FD
:10517000184B184848827F4B48484B487F00002016
:105180004FF0000B4FF0040A38E001222A38C0B279
:1051900002FA00F010EA0E0F49D110F0625C2FD134
:1051A00010EA020B43D06046013C5444B4FBFAF4CD
:1051B0000AFB04F4002D61D0A3EB050CA444B44514
:1051C0003FF66BAF002868D1042B47D159F8043B58
:1051D0002360042304342AE0019A013A01924FF03B
:1051E000000B24E011F8010C6C2834D1002011F8D8
:1051F000023C83466C2BC5D14FF0080A5346D3E7D7
:1052000009F1070929F00709073424F00704F9E830
:1052100002AB35B106982044B0423FF63EAFC4E938
:1052200000AB4FF0000B08344FF0080A534611F85A
:10523000010F002878D0BBF1000F7FF470AF252854
:10524000F5D14FF0010B019B013301934FF0040A9C
:10525000ECE7584694E700208346A5E7082B02D0E8
:105260006FF015001BE709F1070929F00709F9E8B4
:105270000223C4E9002308230834D8E768B9042BC3
:1052800002D109F10409A4E7082BE9D109F10709C2
:1052900029F0070909F10809EDE7059A013A059295
:1052A00059F8042B009210E7039A900720D54FF08D
:1052B000010CA4EB050E4FEA9E00BEF5007FCFD295
:1052C0000F2FCDD8F5B107F140020DEB020E019A78
:1052D000C0B20EF8200C0EF8102CBCF1000F3FF4F9
:1052E0001AAF60F07F000EF8200C08F101080137BA
:1052F000C5F108024FF6DA7E0434069297E74FF0C4
:10530000000CDAE7BCF1000F01D00136EFE702989C
:1053100002360028EBD10098CDE9063145F09CFE1D
:10532000DDE906310644E2E7631BB3F5806F97D2EF
:1053300045B9A6F10804E018B1E600BF6080070097
:1053400034C40900029A9B0828602B709DF8103025
:10535000C2B1EB7085F80280B8F1000F05D00022D1
:1053600008A8C5F1010C97420ED14FF0000AC5F113
:1053700001030DF1200901930DF1300B574512D1B6
:10538000601B8CE66B70E5E710F8013B190608D549
:1053900004EB0C0EB64503F07F033FF67EAE04F837
:1053A000013B0132DFE7B8F1000F03D099F900208B
:1053B000002A17DB029BD3B11AF80B2004F8012B4B
:1053C0000022019B98182044B0423FF666AE99F83F
:1053D0000000009904F8010B20460392FBF70AFC39
:1053E000039A14440AF1010A09F10109C6E799F880
:1053F000002055F822300093029B009845F8223097
:1054000045F02AFE421CDCE76FF00D0047E600BFC6
:105410002DE9F04F97B000AFD7F880B03B62CBF3E7
:10542000C0030446894690F802A0FA62BB6141B904
:10543000457800780AEB800020444D4517D8A0EB52
:105440000409E378FB61BAF1000F02D01BF0010FF1
:1054500016D1FB6953BBFB6A1BB1494620463A6A29
:1054600098474D4628465C37BD46BDE8F08F461C40
:10547000304645F0F1FD0130304409F10109DCE727
:10548000626823787A62FA6A9900796104EB830191
:10549000002A40F001810E464FF000084D4601EB16
:1054A0000A094E454CD101EB0A0610E01BF0020F31
:1054B000D1D023789A007A61626804EB83017A6222
:1054C000FA6A002A77D14D46904601EB0A061BF096
:1054D000050F0CBF02230123FB62FB6906EB430AA5
:1054E0000BF00203BB625645BCD016F8021B16F83F
:1054F000013C54F82390AF4B994502D3AE4B9945EC
:1055000036D3BB69002B40D0786A55F0BEFF002827
:105510003BD0E9468AB06A46A84B53617B6AC2E930
:1055200006314FF400731384A54B42F8103F00235B
:105530004FF41251A34801F049FE023DCD46D2E797
:1055400016F8013BF96254F8230045F085FDD7F8C1
:105550008430F96A01304BB1D7F8883098453EBFA6
:10556000D7F8843023F8180008F10108054498E7BB
:10557000BB6923B1786A55F088FF0028C9D11BF0B8
:10558000010F05D1FB6AED1AADE7BB6A002BAAD06B
:10559000484645F061FDD7F8843053B1D7F88830DC
:1055A00098453FBFD7F88420431C22F8183008F1F3
:1055B0000108054497E7BAF1000F73D01BF0040609
:1055C00073D0D046002607F1480052463B61B962CD
:1055D000FBF710FBB96A3B6901EB0A02BA62FA6990
:1055E000F9695200FA60BA6A02EB41023A610BF0C3
:1055F0000202BA603A69B96A8A4258D162781BF0ED
:10560000020F18BF00217A6208BF4FEA5801B21892
:105610001BF0010FD2B240F09F801BF0040F14BFAB
:1056200040460020BB616270A070E17020463A6A7B
:105630007969FB6A9847051EFFF614AFBB694146BE
:1056400023707B6A3A6A6370FB6984F802A0E37096
:1056500007F14800FB6A9847B0F10008C0F2B48037
:105660007B69A9EB0A01C91AFB683A6AC91AD7E92A
:105670000A0398470028C0F2A9804FF0000BA84405
:1056800008EB000507F1380AB34567D300213A6AF1
:105690000846FB6A9847E5E656464FF0000807F1D2
:1056A000380092E75646D04696E7B04694E7BA6A85
:1056B00012F8021B12F8015CBA6254F825003D4A48
:1056C000904202D33C4A90421ED3BA6932B1786A02
:1056D0007B6055F0DAFE7B6800288BD1BA6802BB8C
:1056E00008F1280207F1300C08F10100944407F199
:1056F000580208F1020852FA80F00CF8101C5FFA08
:1057000088F800F8105C75E7BA693AB1786A7B608E
:1057100055F0BBFE7B6800287FF46CAF1BF0010FD7
:1057200009D006F1280207F13000711C161806F89E
:10573000205CCEB25EE71BF0040F3FF45BAF08F1D4
:10574000280207F1300008F1010102EB000808F817
:10575000105C5FFA81F84DE7002063E71BF80A3020
:1057600054F8239087F83730D7F88430FBB133F8FA
:105770001B8001213A6AFB6A07F13700984700282D
:1057800024DB0544B8F1000F06D1484645F064FC1F
:1057900000F101081FFA88F8414648463A6AFB6A58
:1057A0009847002812DB05440BF1010B6CE7D7F892
:1057B0008480DEE76080070034C4090090E40800BC
:1057C00004000001B085070045464BE6054649E662
:1057D000014B1860704700BF5408002030B5002509
:1057E00087B0CDE903010446009503A90548059556
:1057F00000F0F2F9DDE904309842B8BF255407B053
:1058000030BD00BFD9B405000F2808B506D957F040
:10581000D7FB092303604FF0FF3008BD2822044B5B
:1058200002FB0033D3E8AF3F002BF0D00020F4E7B9
:10583000600800202823434330B50D4908330B444A
:10584000D3E8AF2F92B1541ED3E8EF5F954204D155
:10585000C3E8EC4FBCF1000FF6D1F1D1012A05D11C
:105860002823584300230A180B50536030BD00BF53
:105870005808002070B504460D461646FFF7C4FFD1
:1058800000280ADB084A55B1282303FB04235B6880
:10589000AB4204D057F094FB0660002070BD282373
:1058A0005C431059FAE700BF58080020F8B51E46BF
:1058B000154B174600241D461A68904202D15A68BB
:1058C00091420AD00134102C03F12803F4D157F08F
:1058D00077FB17234FF0FF3403602046FFF794FF58
:1058E00000280EDB27B1282101FB04510C3139605F
:1058F0000EB90120F8BD282303FB0455203535607F
:10590000F7E70020F6E700BF5808002070B504460E
:105910000E461546FFF778FF00280DDB282363436A
:10592000064AD1184968316015B10C3313442B6015
:1059300028235C43105970BD0020FCE75808002064
:1059400070B500254FF0FF334FF0FF32174842F09B
:10595000DFFF174BD3E8AF2F7AB10135102D03F1DC
:105960002803F7D157F02CFB17234FF0FF350360C6
:105970000E4855F007FE284670BD28246C43D3E836
:10598000EF0F0130C3E8E10F0029F8D1094E3319B8
:1059900032515A6004F10C0030446EF0F8FD04F10D
:1059A000200030446FF035F8E2E700BF28190020EE
:1059B000600800205808002010B404461046282231
:1059C0005443084B1A191951506040B1C26832B1A2
:1059D0000C34234440F2051210BC55F0C4BD10BC79
:1059E000704700BF580800202DE9F04104460F46DB
:1059F0009046FFF709FF00281ADB28235C430E4E70
:105A000004F10C0535444FF0FF324FF0FF332846C8
:105A100042F07EFF33195B683059424639461B68B5
:105A200098470446284655F0ADFD2046BDE8F08174
:105A30004FF0FF34F9E700BF580800202DE9F0418E
:105A400004460F469046FFF7DFFE00281ADB2823A6
:105A50005C430E4E04F10C0535444FF0FF324FF01D
:105A6000FF33284642F054FF33195B6830594246F1
:105A700039465B6898470446284655F083FD204622
:105A8000BDE8F0814FF0FF34F9E700BF580800206F
:105A9000F8B50546FFF7B8FE00281ADB28246C434A
:105AA0000D4F04F10C063E444FF0FF324FF0FF3330
:105AB000304642F02DFF3B195B6838599B68984788
:105AC0000446304655F05EFD2846FFF7B3FE2046FB
:105AD000F8BD4FF0FF34FAE75808002073B50446CC
