:10000000C096012001AE0000DD890600EDAD0000C4
:10001000EDAD0000EDAD0000EDAD0000EDAD000078
:10002000000000000000000000000000B5AF00006C
:10003000EDAD00000000000075AF0000EDAD000068
:1000400031B1000031B1000031B1000031B1000028
:1000500031B1000031B1000031B1000031B1000018
:1000600031B1000031B1000031B1000031B1000008
:1000700031B1000031B1000031B1000031B10000F8
:1000800031B1000031B1000031B1000031B10000E8
:1000900031B1000031B1000031B1000031B10000D8
:1000A00031B1000031B1000031B1000031B10000C8
:1000B00031B1000031B1000031B1000031B10000B8
:1000C00031B1000031B1000031B1000031B10000A8
:1000D00031B1000031B1000031B1000031B1000098
:1000E00031B1000031B1000031B1000031B1000088
:1000F00031B1000031B1000031B1000031B1000078
:1001000031B1000031B1000031B1000031B1000067
:1001100031B1000031B1000031B1000031B1000057
:1001200031B1000031B1000031B1000031B1000047
:1001300031B1000031B1000031B1000031B1000037
:1001400031B1000031B1000031B1000031B1000027
:0401500031B10000C9
:04015400FFFFFFFFAB
:1001580081F0004102E000BF83F0004330B54FEA70
:1001680041044FEA430594EA050F08BF90EA020FDD
:100178001FBF54EA000C55EA020C7FEA645C7FEA70
:10018800655C00F0E2804FEA5454D4EB5555B8BF93
:100198006D420CDD2C4480EA020281EA030382EA04
:1001A800000083EA010180EA020281EA0303362D96
:1001B80088BF30BD11F0004F4FEA01314FF4801C69
:1001C8004CEA113102D0404261EB410113F0004F7B
:1001D8004FEA03334CEA133302D0524263EB430332
:1001E80094EA050F00F0A780A4F10104D5F1200ED0
:1001F8000DDB02FA0EFC22FA05F2801841F100012B
:1002080003FA0EF2801843FA05F359410EE0A5F1FE
:1002180020050EF1200E012A03FA0EFC28BF4CF02F
:10022800020C43FA05F3C01851EBE37101F00045E5
:1002380007D54FF0000EDCF1000C7EEB00006EEBF2
:100248000101B1F5801F1BD3B1F5001F0CD349087C
:100258005FEA30004FEA3C0C04F101044FEA4452D3
:1002680012F5800F80F09A80BCF1004F08BF5FEA5A
:10027800500C50F1000041EB045141EA050130BD3A
:100288005FEA4C0C404141EB0101013C28BFB1F54C
:10029800801FE9D291F0000F04BF01460020B1FA97
:1002A80081F308BF2033A3F10B03B3F120020CDA6A
:1002B8000C3208DD02F1140CC2F10C0201FA0CF048
:1002C80021FA02F10CE002F11402D8BFC2F1200CAD
:1002D80001FA02F120FA0CFCDCBF41EA0C01904063
:1002E800E41AA2BF01EB0451294330BD6FEA0404AC
:1002F8001F3C1CDA0C340EDC04F11404C4F1200297
:1003080020FA04F001FA02F340EA030021FA04F3A8
:1003180045EA030130BDC4F10C04C4F1200220FAFF
:1003280002F001FA04F340EA0300294630BD21FA3D
:1003380004F0294630BD94F0000F83F4801306BF03
:1003480081F480110134013D4EE77FEA645C18BFF7
:100358007FEA655C29D094EA050F08BF90EA020F8E
:1003680005D054EA000C04BF1946104630BD91EA86
:10037800030F1EBF0021002030BD5FEA545C05D189
:100388004000494128BF41F0004130BD14F58004C8
:100398003CBF01F5801130BD01F0004545F0FE413C
:1003A80041F470014FF0000030BD7FEA645C1ABF71
:1003B800194610467FEA655C1CBF0B46024650EAA8
:1003C800013406BF52EA033591EA030F41F40021D4
:1003D80030BD00BF90F0000F04BF0021704730B55A
:1003E8004FF4806404F132044FF000054FF000012F
:1003F80050E700BF90F0000F04BF0021704730B5F0
:100408004FF4806404F1320410F0004548BF4042C4
:100418004FF000013EE700BF42004FEAE2014FEA19
:1004280031014FEA02701FBF12F07F4393F07F4FF4
:1004380081F06051704732F07F4208BF704793F0F7
:100448007F4F04BF41F40021704730B54FF460740A
:1004580001F0004521F000411CE700BF50EA01020D
:1004680008BF704730B54FF000050AE050EA0102B6
:1004780008BF704730B511F0004502D5404261EB26
:1004880041014FF4806404F132045FEA915C3FF467
:10049800D8AE4FF003025FEADC0C18BF03325FEA04
:1004A800DC0C18BF033202EBDC02C2F1200300FAB5
:1004B80003FC20FA02F001FA03FE40EA0E0021FADA
:1004C80002F11444BDE600BF70B54FF0FF0C4CF4C8
:1004D800E06C1CEA11541DBF1CEA135594EA0C0F7A
:1004E80095EA0C0F00F0DEF82C4481EA030621EAB5
:1004F8004C5123EA4C5350EA013518BF52EA0335F0
:1005080041F4801143F4801338D0A0FB02CE4FF0A1
:100518000005E1FB02E506F00042E0FB03E54FF0D1
:100528000006E1FB03569CF0000F18BF4EF0010EC9
:10053800A4F1FF04B6F5007F64F5407404D25FEAC5
:100548004E0E6D4146EB060642EAC62141EA555178
:100558004FEAC52040EA5E504FEACE2EB4F1FD0CBA
:1005680088BFBCF5E06F1ED8BEF1004F08BF5FEA38
:10057800500E50F1000041EB045170BD06F00046EA
:1005880046EA010140EA020081EA0301B4EB5C0497
:10059800C2BFD4EB0C0541EA045170BD41F480118F
:1005A8004FF0000E013C00F3AB8014F1360FDEBFB4
:1005B800002001F0004170BDC4F10004203C35DA90
:1005C8000C341BDC04F11404C4F1200500FA05F313
:1005D80020FA04F001FA05F240EA020001F00042B4
:1005E80021F0004110EBD37021FA04F642EB06012A
:1005F8005EEA430E08BF20EAD37070BDC4F10C0454
:10060800C4F1200500FA04F320FA05F001FA04F217
:1006180040EA020001F0004110EBD37041F1000103
:100628005EEA430E08BF20EAD37070BDC4F120050E
:1006380000FA05F24EEA020E20FA04F301FA05F276
:1006480043EA020321FA04F001F0004121FA04F21E
:1006580020EA020000EBD3705EEA430E08BF20EAEE
:10066800D37070BD94F0000F0FD101F00046400028
:1006780041EB010111F4801F08BF013CF7D041EAAA
:10068800060195F0000F18BF704703F000465200AE
:1006980043EB030313F4801F08BF013DF7D043EA7F
:1006A8000603704794EA0C0F0CEA135518BF95EA35
:1006B8000C0F0CD050EA410618BF52EA4306D1D1BC
:1006C80081EA030101F000414FF0000070BD50EADB
:1006D800410606BF1046194652EA430619D094EA65
:1006E8000C0F02D150EA013613D195EA0C0F05D14F
:1006F80052EA03361CBF104619460AD181EA0301A3
:1007080001F0004141F0FE4141F470014FF000005A
:1007180070BD41F0FE4141F4780170BD70B54FF0F5
:10072800FF0C4CF4E06C1CEA11541DBF1CEA135575
:1007380094EA0C0F95EA0C0F00F0A7F8A4EB050457
:1007480081EA030E52EA03354FEA013100F088804E
:100758004FEA03334FF0805545EA131343EA126317
:100768004FEA022245EA111545EA10654FEA0026CC
:100778000EF000419D4208BF964244F1FD0404F585
:10078800407402D25B084FEA3202B61A65EB0305E1
:100798005B084FEA32024FF480104FF4002CB6EB9E
:1007A800020E75EB030E22BFB61A754640EA0C001E
:1007B8005B084FEA3202B6EB020E75EB030E22BF5E
:1007C800B61A754640EA5C005B084FEA3202B6EB9F
:1007D800020E75EB030E22BFB61A754640EA9C005E
:1007E8005B084FEA3202B6EB020E75EB030E22BF2E
:1007F800B61A754640EADC0055EA060E18D04FEAEC
:10080800051545EA16754FEA06164FEAC30343EA8B
:1008180052734FEAC2025FEA1C1CC0D111F4801F58
:100828000BD141EA00014FF000004FF0004CB6E751
:1008380011F4801F04BF01430020B4F1FD0C88BFF0
:10084800BCF5E06F3FF6AFAEB5EB030C04BFB6EBFB
:10085800020C5FEA500C50F1000041EB045170BDEE
:100868000EF0004E4EEA113114EB5C04C2BFD4EB1B
:100878000C0541EA045170BD41F480114FF0000E9F
:10088800013C90E645EA060E8DE60CEA135594EA1B
:100898000C0F08BF95EA0C0F3FF43BAF94EA0C0F1E
:1008A8000AD150EA01347FF434AF95EA0C0F7FF493
:1008B80025AF104619462CE795EA0C0F06D152EAE7
:1008C80003353FF4FDAE1046194622E750EA4106CB
:1008D80018BF52EA43067FF4C5AE50EA41047FF4DC
:1008E8000DAF52EA43057FF4EBAE12E74FF0FF3C41
:1008F80006E000BF4FF0010C02E000BF4FF0010C12
:100908004DF804CD4FEA410C7FEA6C5C4FEA430C8A
:1009180018BF7FEA6C5C1BD001B050EA410C0CBFD9
:1009280052EA430C91EA030F02BF90EA020F00203B
:10093800704710F1000F91EA030F58BF994208BFA2
:1009480090422CBFD8176FEAE37040F0010070475F
:100958004FEA410C7FEA6C5C02D150EA013C07D1B6
:100968004FEA430C7FEA6C5CD6D152EA033CD3D001
:100978005DF8040B704700BF8446104662468C46FB
:100988001946634600E000BF01B5FFF7B7FF00282E
:1009980048BF10F1000F01BD4DF808EDFFF7F4FF57
:1009A8000CBF012000205DF808FB00BF4DF808EDE2
:1009B800FFF7EAFF34BF012000205DF808FB00BF05
:1009C8004DF808EDFFF7E0FF94BF012000205DF827
:1009D80008FB00BF4DF808EDFFF7CEFF94BF0120DC
:1009E80000205DF808FB00BF4DF808EDFFF7C4FFD5
:1009F80034BF012000205DF808FB00BF4A0011D277
:100A080012F5001211D20DD56FF47873B3EB625260
:100A18000ED44FEAC12343F0004343EA505323FA6C
:100A280002F070474FF00000704750EA013002D1E1
:100A38004FF0FF3070474FF0000070474FEA410217
:100A4800B2F1E04324BFB3F5001CDCF1FE5C0DD924
:100A580001F0004C4FEAC0024CEA5070B2F1004F6E
:100A680040EB830008BF20F00100704711F0804F71
:100A780021D113F13872BCBF01F00040704741F436
:100A880080114FEA5252C2F11802C2F1200C10FA3A
:100A98000CF320FA02F018BF40F001004FEAC1231E
:100AA8004FEAD32303FA0CFC40EA0C0023FA02F3C2
:100AB8004FEA4303CCE77FEA625307D150EA013398
:100AC8001EBF4FF0FE4040F44000704701F0004068
:100AD80040F0FE4040F40000704700BF7BB972B997
:100AE8000029BEBF00204FF0004106E008BF0028E3
:100AF8001CBF6FF000414FF0FF3000F075B8ADF14A
:100B0800080C6DE904CE002909DB002B1ADB01F083
:100B1800B4F8DDF804E0DDE9022304B07047404290
:100B280061EB4101002B1BDB01F0A7F8DDF804E0C5
:100B3800DDE9022304B0404261EB4101524263EB1C
:100B480043037047524263EB430301F096F8DDF824
:100B580004E0DDE9022304B0404261EB4101704743
:100B6800524263EB430301F088F8DDF804E0DDE965
:100B7800022304B0524263EB4303704753B94AB9A6
:100B8800002908BF00281CBF4FF0FF314FF0FF308D
:100B980000F02AB8ADF1080C6DE904CE01F06DF84B
:100BA800DDF804E0DDE9022304B07047D0B5002287
:100BB8000B4B06460F46FFF787FCFFF71FFF04465F
:100BC800FFF708FC0022074BFFF77EFC02460B46A6
:100BD80030463946FFF7C0FAFFF710FF2146D0BD6F
:100BE8000000F03D0000F041704700BF844641EA34
:100BF800000313F0030349D1403A23D30B68036081
:100C08004B6843608B688360CB68C3600B69036182
:100C18004B6943618B698361CB69C3610B6A03626A
:100C28004B6A43628B6A8362CB6AC3620B6B036352
:100C38004B6B43638B6B8363CB6BC3634030403137
:100C4800403ADBD230320BD30B6803604B68436009
:100C58008B688360CB68C36010301031103AF3D2D0
:100C68000C3205D351F8043B40F8043B043AF9D25E
:100C7800043208D0D2071CBF11F8013B00F8013B31
:100C880001D30B8803806046704700BF082A13D33E
:100C98008B07B1D010F00303AED0C3F10403D21A0E
:100CA800DB071CBF11F8013B00F8013BA4D331F866
:100CB800023B20F8023B9FE7043AD9D3013A11F8E6
:100CC800013B00F8013BF9D20B7803704B78437075
:100CD8008B7883706046704780EA010C1CF0030F24
:100CE80037D110F0030C20F0030021F0030150F875
:100CF800042B08BF51F8043B0ED08CF0030C6FF0A6
:100D08007F434FEACC0C23FA0CFC51F8043B42EA2F
:100D18000C0243EA0C0300BFA2F1013C9A4201BF56
:100D28002CEA020C1CF0803F50F8042B51F8043BCD
:100D3800F2D04FEA02604FEA1222012828BFB0EB36
:100D4800036F08BF1B0AF4D003F0FF03000EC01A9C
:100D5800704710F0030F0AD010F8012B11F8013B6F
:100D6800012A28BF9A42F4D0A2EB030070474DF83D
:100D7800045D50F8042B01F0030521F0030151F83C
:100D8800043B022D26D04DD822F07F45B5EB132F1A
:100D9800A2F1013C2CEA020C0DD11CF0803C08BFEA
:100DA80051F8043B0AD185EA0205B5EB036F0CD173
:100DB80050F8042BE8E74FEA13235BE03CF07F4C44
:100DC80054D10B784FEA126554E04FEA126503F0EC
:100DD800FF034FE04FEA0245A2F1013C4FEA1545F7
:100DE8002CEA020CB5EB134F18D11CF0803C08BF5D
:100DF80051F8043B07D185EA0205B5EB034F09D149
:100E080050F8042BE6E75FEA0C4C2FD10B884FEA29
:100E180012452FE04FEA03434FEA12454FEA1343C6
:100E280028E000BF02F0FF05B5EB136FA2F1013C0B
:100E38002CEA020C0DD11CF0803C08BF51F8043B91
:100E48000AD185EA0205B5EB032F0AD150F8042B25
:100E5800E8E74FEA13630DE012F0FF0F06D051F8F0
:100E6800043B4FEA122523F07F4303E04FF00000D4
:100E780020BC704705F0FF0203F0FF00012828BFDF
:100E8800904204BF2D0A1B0AF4D0A2EB000020BC3C
:100E9800704700BF4FEA410C7FEA6C5C02D150EA10
:100EA800013C0AD14FEA430C7FEA6C5C02D152EA5A
:100EB800033C02D14FF0000070474FF0010070472B
:100EC8004FEA410212F5001215D211D56FF478736A
:100ED800B3EB625212D94FEAC12343F0004343EA0D
:100EE800505311F0004F23FA02F018BF40427047E8
:100EF8004FF00000704750EA013005D111F0004072
:100F080008BF6FF0004070474FF00000704700BF07
:100F18002DE9F14F03F11C0402EB840C4FEA930B0B
:100F28008A68CB680868496800F046F93CE9F0002F
:100F38006040694072407B400BF1060E4EE083EA48
:100F4800134480EA134582EA134746BA96EA3444C2
:100F5800604000F00F1684EA063420F00F1684EA89
:100F6800161054BA94EA0106724002F00F1486EA89
:100F7800043622F00F1486EA14124CBA6540694010
:100F880001F00F1485EA043521F00F1485EA1411D5
:100F98005CBA67407B4003F00F1487EA043723F0FC
:100FA8000F1487EA141344BA44404DBA4D4056BA58
:100FB80056405FBA5F4087EA174886EA174B84EACB
:100FC80017464FEA38488BEA1B4485EA1B4788EAEC
:100FD8001B4580EA3440694072407B4000F0703421
:100FE80000F0803500F00F3040EA440040EAD500B8
:100FF80080EA900404F0332480EA8400604001F021
:10100800703401F0803501F00F3141EA440141EAC2
:10101800D50181EA910404F0332481EA8401614016
:1010280002F0703402F0803502F00F3242EA4402D6
:1010380042EAD50282EA920404F0332482EA840266
:10104800624003F0703403F0803503F00F3343EA55
:10105800440343EAD50383EA930404F0332483EA80
:1010680084036340C943DB4381EA000483EA0446FE
:1010780086EA020183EA014382EA334583EA14439C
:101088005C4084EA00077FEA040A8AEA024A8AEA9C
:10109800010B87EA11488AEA374A80EA060181EAA1
:1010A8001A418AEA030A04EA0A00454088EA040762
:1010B80007EA0B0041408AEA0B0608EA060084EAC0
:1010C80034428AEA3A4602EA06035840454041401B
:1010D80087EA37438BEA3B4003EA000985EA0905BA
:1010E80082EA0309464006EA0906714085EA0100DA
:1010F80005EA3546464006EA314181EA304181EA4F
:10110800364606EA304686EA354634400F4086EAD7
:10111800010508EA050886EA3640024088EA02081E
:1011280081EA314213405C4080EA020309EA03097C
:1011380087EA0907674088EA040806EA0A0601EA16
:101148000B018AEA0B0425408AEA3A4420404540CC
:101158008BEA3B4B02EA0B02564084EA0B0423401D
:1011680059406E40694087EA364080EA384080EA54
:10117800060380EA104481EA134585EA344585EA86
:1011880017427D4082EA354180EA05403CE9F0009B
:101198006040694072407B40BEF1010E3FF6CFAE21
:1011A80020BC00F05FF828606960AA60EB60BDE8C9
:1011B800F08F00BF00F000BA80EA101404F0F014B9
:1011C80080EA0410604081EA111404F0F01481EA06
:1011D8000411614082EA121404F0F01482EA041245
:1011E800624083EA131404F0F01483EA04136340A2
:1011F80080EA102404F47F4480EA0420604081EAF5
:10120800112404F47F4481EA0421614082EA122413
:1012180004F47F4482EA0422624083EA132404F43B
:101228007F4483EA0423634081EA500404F0553480
:1012380080EA4400614083EA520404F0553482EAAB
:101248004402634082EA900404F0333480EA840064
:10125800624083EA910404F0333481EA84016340F4
:10126800704700BF82EA900404F0333480EA8400B7
:10127800624083EA910404F0333481EA84016340D4
:1012880081EA500404F0553480EA4400614083EA5E
:10129800520404F0553482EA4402634080EA102480
:1012A80004F47F4480EA0420604081EA112404F4B5
:1012B8007F4481EA0421614082EA122404F47F44D5
:1012C80082EA0422624083EA132404F47F4483EA16
:1012D8000423634080EA101404F0F01480EA041038
:1012E800604081EA111404F0F01481EA04116140AD
:1012F80082EA121404F0F01482EA0412624083EACB
:10130800131404F0F01483EA04136340704700BF19
:101318002DE9F14F94464FEA930B8A68CB68086829
:101328004968FFF749FF0BF1060E33E083EA1344DF
:1013380080EA134582EA134746BA96EA3444604085
:1013480000F00F1684EA063420F00F1684EA16100F
:1013580054BA94EA0106724002F00F1486EA043681
:1013680022F00F1486EA14124CBA6540694001F065
:101378000F1485EA043521F00F1485EA14115CBABC
:1013880067407B4003F00F1487EA043723F00F14FB
:1013980087EA1413BCE8F0006040694072407B4063
:1013A80000F0E03400F0103500F00F3040EA54004F
:1013B80040EAC50080EA900404F0332480EA8400FF
:1013C800604001F0E03401F0103501F00F3141EADE
:1013D800540141EAC50181EA910404F0332481EA09
:1013E8008401614002F0E03402F0103502F00F325F
:1013F80042EA540242EAC50282EA920404F0332423
:1014080082EA8402624003F0E03403F0103503F00E
:101418000F3343EA540343EAC50383EA930404F011
:10142800332483EA8403634081EA324787EA134519
:1014380081EA354690EA060484EA034B82EA1B42B5
:1014480080EA044484EA054483EA144A85EA144499
:101458008BEA044B84EA374481EA0B4181EA16415E
:1014680004EA0A00454082EA04082BEA08004140E1
:101478008AEA0B0602EA060084EA34438AEA3A4614
:1014880003EA060778404540414088EA38478BEA36
:101498003B4007EA000985EA090583EA070946404F
:1014A80006EA0906714085EA010005EA3546464024
:1014B80006EA314181EA304181EA364606EA304699
:1014C80086EA3546344008EA010886EA01052A40DA
:1014D80086EA364003405A4081EA31431F407C4047
:1014E80080EA030709EA070988EA0908544088EAF4
:1014F800020806EA0A0601EA0B018AEA0B0215400D
:101508008AEA3A42104045408BEA3B4003405E403D
:101518004240174079404D404E40E443F64386EA46
:1015280018435D4085EA054083EA134386EA034190
:1015380083EA384284EA114383EA04435FEA334387
:10154800BEF1010E3FF6F2AE1ED4BCE8F0006040DA
:10155800694072407B4020BCFFF784FE28606960C8
:10156800AA60EB60BDE8F08F2DE9E0414FF2F00290
:1015780080EA1031114080EA013048404108820871
:10158800C3084FF0000E4FE700F0113001F01131A1
:1015980002F0113203F0113340EA410040EA8200C0
:1015A80040EAC3004FF2F00280EA1031114080EAAD
:1015B80001304840BDE8E0812DE9F04F02F11C05FB
:1015C8000646074600EB850851F8040B043A46F82E
:1015D800040BF9D14FF0010CFFF7C6FF5FEA30208A
:1015E80080EA0C001ECF41404A4053405C401EC672
:1015F8002000464517D04FEA4C0C1CF4807F18BFDA
:10160800ACF1E50C2C2DE7D03C2D06D1FFF7ACFF53
:1016180006CF41404A4006C6100006CF41404A4026
:1016280006C61000D8E736E90F00FFF7C5FD043DF0
:1016380086E80F00F7D1BDE8F08F00BF2DE9F04F25
:10164800B0E8FE0783B02DE9010790E8005F4FF08E
:101658000A0006900198DB199CEA030C18EB3C4839
:1016680097EA080713EB375393EA3C4C18EB3C68AE
:1016780098EA375724189EEA040E19EB3E4990EA77
:10168800090014EB305494EA3E4E19EB3E6999EA8E
:101698003050CDE90489DDE9028949199AEA010A3D
:1016A80018EB3A4895EA080511EB355191EA3A4AA0
:1016B80018EB3A6898EA355592199BEA020B19EB30
:1016C8003B4996EA090612EB365292EA3B4B19EB74
:1016D8003B6999EA365613EB706393EA3B6B18EB58
:1016E8003B4898EA706013EB305393EA3B4B5FEA50
:1016F8003B6B18EB0B0898EA30505FEA706014EB0C
:10170800756494EA3C6C19EB3C4999EA756514EBED
:10171800355494EA3C4C5FEA3C6C19EB0C0999EAA5
:1017280035555FEA7565CDE90289DDE9048911EB74
:10173800766191EA3E6E18EB3E4898EA766611EBC0
:10174800365191EA3E4E5FEA3E6E18EB0E0898EA73
:1017580036565FEA766612EB776292EA3A6A19EBD6
:101768003A4999EA776712EB375292EA3A4A5FEABE
:101778003A6A19EB0A0999EA37575FEA77670190DD
:10178800069801387FF465AF01BC80E8005FBDE8CA
:10179800000700E9FE0703B0BDE8F08F30B44FF052
:1017A800000310F8014B11F8015B013A84EA0504C3
:1017B80043EA0403F5D1A3F101034FEAD37030BC27
:1017C800704700BF4FF0000310F8012B013943EABE
:1017D8000203F9D1A3F101034FEAD370704700BFA8
:1017E80030B411F8014B12F8015B6C4000F8014B62
:1017F800013BF6D130BC70472DE9F14FF8C892E8AB
:10180800005E19EB03095AEB040A5BEB050B5CEB72
:10181800060C4EEB070E91E8E001A9FB0502AAFBB6
:101828000543E9FB6624EAFB6634A9FB0765E9FB87
:101838006845B1E80003EBFB6836ECFB6846EEFB55
:101848006856ABFB0987ECFB6957EEFB696791E8C3
:101858000202EAFB6148EBFB6158ECFB6168EEFBB6
:1018680061784FF00001EAFB0951EBFB6961ECFB81
:101878006971EEFB69814FF4A03C4FEA154949EACA
:1018880006495FF0000AE9FB0C0A4FEA164646EAE9
:101898000746E6FB6C2A4FEA174747EA0847E7FB83
:1018A8006C3A4FEA184848EA0148E8FB6C4AADB27E
:1018B8005544AF0805F0030507EB8707C01952F137
:1018C800000153F1000254F1000345F1000420BC6B
:1018D8001FC5BDE8F08F00BF30B490E83C10511D23
:1018E80053F1000154F1000155F100014CF10001E0
:1018F8004FEA9101494201F00501521853F10003E2
:1019080054F1000455F100054CF1000C0CF0030CE7
:1019180080E83C1030BC70472DE9F04F90E8F00F9C
:1019280000F140004FF0040E59E0F0B4826BC36B35
:1019380004680525242687593C444FEA724787EAFC
:10194800F24787EA92273C4442684FEAF21787EA4F
:10195800B24787EAD2073C4440F8044B032D08BF3E
:101968006FF01B0687593A444FEA734787EAF347F3
:1019780087EA93273A4443684FEAF31787EAB3475D
:1019880087EAD3073A4440F8042B87593B444FEA87
:10199800744787EAF44787EA94273B4444684FEA48
:1019A800F41787EAB44787EAD4073B4440F8043B76
:1019B800013DC0D1A0F13C00076A3C444FEA7247A0
:1019C80087EAF24787EA92273C4402684FEAF2170F
:1019D80087EAB24787EAD2073C44C463F0BC4FF0B9
:1019E800020288EA781C8CEAF84C0BEBBC1C8AEAE9
:1019F800090303EA080383EA0A039C4450F8043BFA
:101A08009C4451F8043B9C44674444EA050B0BEAA8
:101A1800060B04EA05034BEA030BE34484EAF423C8
:101A280083EA34530BEBB30B87EA771C8CEAF74C49
:101A38000AEBBC1C89EA080303EA070383EA0903E3
:101A48009C4450F8043B9C4451F8043B9C44664435
:101A58004BEA040A0AEA050A0BEA04034AEA030AFB
:101A6800E2448BEAFB2383EA3B530AEBB30A86EA98
:101A7800761C8CEAF64C09EBBC1C88EA070303EADF
:101A8800060383EA08039C4450F8043B9C4451F83D
:101A9800043B9C4465444AEA0B0909EA04090AEA3A
:101AA8000B0349EA0309E1448AEAFA2383EA3A5331
:101AB80009EBB30985EA751C8CEAF54C08EBBC1CEC
:101AC80087EA060303EA050383EA07039C4450F800
:101AD800043B9C4451F8043B9C44644449EA0A088A
:101AE80008EA0B0809EA0A0348EA0308E04489EA15
:101AF800F92383EA395308EBB30884EA741C8CEAA7
:101B0800F44C07EBBC1C86EA050303EA040383EAEA
:101B180006039C4450F8043B9C4451F8043B9C4405
:101B2800E34448EA090707EA0A0708EA090347EA13
:101B38000307674488EAF82383EA385307EBB307B7
:101B48008BEA7B1C8CEAFB4C06EBBC1C85EA040385
:101B580003EA0B0383EA05039C4450F8043B9C44C6
:101B680051F8043B9C44E24447EA080606EA0906A1
:101B780007EA080346EA0306664487EAF72383EA86
:101B8800375306EBB3068AEA7A1C8CEAFA4C05EB63
:101B9800BC1C84EA0B0303EA0A0383EA04039C449B
:101BA80050F8043B9C4451F8043B9C44E14446EA09
:101BB800070505EA080506EA070345EA030565443B
:101BC80086EAF62383EA365305EBB30589EA791CDE
:101BD8008CEAF94C04EBBC1C8BEA0A0303EA090300
:101BE80083EA0B039C4450F8043B9C4451F8043BA3
:101BF8009C44E04445EA060404EA070405EA0603AF
:101C080044EA0304644485EAF52383EA355304EB84
:101C1800B304013A7FF4E5AEA0F14000BEF1010E35
:101C28007FF483AEA0F1400C9CE80F00001949191D
:101C38009219DB19ACE80F009CE80F0040444944B6
:101C480052445B44ACE80F00BDE8F08F38B5002281
:101C5800002304460D46FEF7A9FE28B9204629466A
:101C6800BDE83840FEF7A2BF204605F10041FEF767
:101C78009DFF404261EB410138BD2DE9F0478646A2
:101C88008C460846089E154674461946002B40F0B7
:101C9800C1808542B2FA82F245D94AB1C2F1200325
:101CA80000FA02FC954094402EFA03F343EA0C0C28
:101CB8004FEA154EA8B2230CBCFBFEF80EFB18CC5D
:101CC80008FB00F943EA0C43994528D9EB1808F1B9
:101CD800FF3704D2994502D9A8F102072B44A3EB98
:101CE8000903A4B2B3FBFEFC0EFB1C330CFB00F093
:101CF80044EA0344A04214D92C190CF1FF3304D24E
:101D0800A04202D9ACF102032C44241A43EA07404A
:101D18001EB1D440002334607360BDE8F0874746A5
:101D2800DDE76346F1E792BB431B01214FEA154EFD
:101D3800AFB2200CB3FBFEFC0EFB1C330CFB07F808
:101D480040EA0343984561D9EB180CF1FF3004D2FF
:101D5800984502D9ACF102002B44A3EB0803A4B2C6
:101D6800B3FBFEFC0EFB1C330CFB07F744EA0344F1
:101D7800A7424DD92C190CF1FF3304D2A74202D93E
:101D8800ACF102032C44E41B43EA0040C0E7C2F173
:101D980020039540944020FA03F12EFA03F34FEA0A
:101DA800154E9040AFB20343B1FBFEFC0EFB1C1076
:101DB800190C0CFB07F841EA0041884522D969183B
:101DC8000CF1FF3004D2884502D9ACF10200294455
:101DD800A1EB08019BB2B1FBFEFC0EFB1C110CFB36
:101DE80007F743EA01439F420ED9EB180CF1FF3184
:101DF80004D29F4202D9ACF102012B44DB1B41EA19
:101E0800004193E76046E3E76146F7E76046A4E7E9
:101E18006346B8E7834206D916B9002108467CE72D
:101E2800C6E900E0F9E7B3FA83F78FB9834201D333
:101E3800724508D8BEEB020460EB030301209C4600
:101E48001EB9002169E73846FAE7C6E9004CF8E709
:101E5800C7F1200CBB400EFA07F522FA0CF42EFA53
:101E68000CF1BA401C4320FA0CF3B8404FEA14496D
:101E780001431FFA84FEB3FBF9F809FB18300B0C79
:101E880008FB0EFA43EA00439A4540D9E31808F1E3
:101E9800FF3004D29A4502D9A8F102002344A3EBEB
:101EA8000A0389B2B3FBF9F809FB183308FB0EFEE5
:101EB80041EA03418E452CD9611808F1FF3304D259
:101EC8008E4502D9A8F10203214443EA0040A1EB60
:101ED8000E01A0FB02984145CE46434602D306D1E7
:101EE8004D4504D20138B9EB020E68EB0403002E0D
:101EF800A7D0B5EB0E0261EB030101FA0CFC22FA44
:101F080007F3F9404CEA0303C6E9003199E7404674
:101F1800C5E74346D9E700002DE9F04706460F46D6
:101F280090468AB079F019F84FF47A73A0FB03450C
:101F380003FB0155E40B012F44EA45444FEAD5352C
:101F480008D108213046CDE90045294A65F0E1FE6F
:101F5800002013E0D8F8047026483946FEF7BCFE86
:101F680078B139462448FEF7B7FE50B130463B46B3
:101F78000121224A65F0CDFE6FF004000AB0BDE8E9
:101F8800F087204618A3D3E900232946FEF7A6FDCB
:101F980005460C4610461946194A0023FEF79EFDD1
:101FA80080460F46104619464EF660220023FEF77B
:101FB80095FD82468946104619464FF47A720023E9
:101FC800FEF78CFDCDE904A9CDE90601CDE908238A
:101FD80008213046CDE90287CDE90054094A65F069
:101FE80098FEB5E7AFF30080005C2605000000000E
:101FF800375A0900485A09004B5A0900545A09002F
:1020080080EE36006B5A090001282DE9F041884618
:1020180007D066F076FD162303604FF0FF30BDE869
:10202800F0818A68244B9A42F3D878F096FF0546E7
:102038000F4678F092FF214CD8F80030D8F80420E9
:10204800A3FB043604FB0266D8F808209B1846EB6D
:10205800E276EA0B42EA4742A2FB0421FF0B9B1AF5
:10206800C0F30E0204FB0711A2FB04244FEAD2328C
:1020780042EA444266EB0101981A61F100010CA39F
:10208800D3E90023FEF72AFDEFF31184202383F31D
:102098001288BFF36F8F0A4BC3E900019A6084F37B
:1020A8001188BFF36F8F0020B9E700BFAFF300803E
:1020B80000CA9A3B00000000FFC99A3B00CA9A3B3D
:1020C80028290020000000002DE9F04F0C46D0F828
:1020D8002011A3B00B6B1546159063B10622183179
:1020E80005F1200052F09AFF28B94FF00108404648
:1020F80023B0BDE8F08F159818A9276ED4F8806032
:10210800D5F880B071F07AF9002850D1DDF870A0C8
:10211800BAF1000F04D1DDF86CA0BAF1000F26D097
:1021280042F20F711D9B189A8B420AD16FF47A63A1
:10213800D31840F2657293428CBF6FF058036FF06A
:102148005B032046AAEB03086FF0A0FFD4F88C20AD
:10215800034604F194010AB9D4F89020206D57463B
:10216800CDE90080159833F025FEC246064606F5EF
:102178009C5308339B45B8D82B6DB3F57A6F1793EA
:1021880018DD236DB3F57A6FACBF00230123002F50
:10219800169311DB0BF59C5308339E4200F2038122
:1021A800BAF1190F00F3FF804FF002083AE04FF040
:1021B800000ADCE70023EAE72B6E169A03EB4203DA
:1021C8009F4215DD5846FEF705F980463046894698
:1021D800FEF700F94FF03332774BFEF775F90246F8
:1021E8000B4640464946FEF7E1FB002840F0DB80FD
:1021F8000BF59C5308339E4200F2D580BAF1190FB3
:1022080000F3D18017F1550F69DB17F1500FCBDBC5
:1022180017F14B0F66DB17F1460FB4BF4FF00408F8
:102228004FF005083046FEF7D5F8814658468A46ED
:10223800FEF7D0F802460B46CDE9122300225F4B89
:10224800FEF742F902460B4648465146FEF7CCFBDC
:1022580000284AD008F10A08169B0BB1A8F1020819
:102268002B6E0321CDE9103BDA1B179B90450F938A
:1022780095F82530524A0E9395F82430C8BF4FF090
:1022880000080D9395F82330D8BF4FF001080C9340
:1022980095F822300B9395F821300A9395F8203061
:1022A8000797CDE90863236D069394F825300593C5
:1022B80094F82430049394F82330039394F822304C
:1022C800029394F82130019394F8203000933D4B09
:1022D8001598C8BF13463C4A3BF0BAFD07E74FF0D4
:1022E80001089FE74FF003089CE74FF03332DDE920
:1022F8001201314BFEF7E8F802460B4648465146B4
:10230800FEF772FB10B108F10508A5E728A3D3E989
:102318000023DDE91201FEF7D7F802460B464846CE
:102328005146FEF761FB10B108F1020894E7B34586
:1023380002D208F101088FE70022204B4846514697
:10234800FEF7C2F802460B46DDE91201FEF74CFB28
:1023580010B1A8F10A087FE74FF03332164B484610
:102368005146FEF7B1F802460B46DDE91201FEF7C9
:102378003BFB10B1A8F105086EE70DA3D3E90023D4
:1023880048465146FEF7A0F802460B46DDE9120121
:10239800FEF72AFB10B1A8F102085DE7B34588BF34
:1023A80008F1FF3858E74FF00008A0E6AFF30080C7
:1023B8009A9999999999F13F3333F33F0000F83F7F
:1023C80060450A004C450A0076450A0000000000F6
:1023D800C1F30A5C02460B462DE9F041ACF2FF3529
:1023E8000C460646132D34DC002D20DBDFF8D080A8
:1023F8000F4648FA05F801EA080C5CEA000C2DD0F3
:102408002DA3D3E90023FDF7A9FE00220023FEF740
:10241800EBFA40B1002C03DD4FF480132B411F442D
:1024280027EA0804002621463046BDE8F08122A3A9
:10243800D3E90023FDF792FE00220023FEF7D4FA29
:102448000028F0D0002C33DB3443EBD000261D4CA1
:10245800E9E7332D06DDB5F5806F26D0104619461D
:10246800BDE8F081ACF2134C4FF0FF3727FA0CF7B8
:102478003842F3D010A3D3E90023FDF76FFE002202
:102488000023FEF7B1FA0028CDD0002C334609DD31
:10249800142D06D0C5F134050122AA4013449E42EA
:1024A80000D9013423EA0706BDE7FDF757FED7E751
:1024B80000264FF00044B6E79C7500883CE4377E60
:1024C800FFFF0F000000F03FC1F30A5C02460B4615
:1024D8002DE9F041ACF2FF350C460646132D32DCEF
:1024E800002D20DBDFF8E0800F4648FA05F801EA06
:1024F800080C5CEA000C2BD031A3D3E90023FDF7CC
:102508002DFE00220023FEF76FFA40B1002C03DAFB
:102518004FF480132B411F4427EA08040026214664
:102528003046BDE8F08126A3D3E90023FDF716FE67
:1025380000220023FEF758FA0028F0D0002C27DBF1
:1025480000263446EBE7332D06DDB5F5806F1CD049
:1025580010461946BDE8F081ACF2134C4FF0FF3736
:1025680027FA0CF70742F3D015A3D3E90023FDF7A8
:10257800F5FD00220023FEF737FA0028CFD0002C03
:1025880033460CDB23EA0706C9E7FDF7E7FDE1E779
:1025980024F0004426430DD14FF00044BFE7142D2A
:1025A80006D0C5F134050122AA401344B342E9D24A
:1025B8000134E7E70026054CB1E700BFAFF3008020
:1025C8009C7500883CE4377EFFFF0F000000F0BFD9
:1025D800F8B5C1F30A5604460D4617460B462EBBFE
:1025E80021F00043034320D02D4B0022FDF76CFF60
:1025F8002C4B04460D469F4241DBC1F30A560B465D
:10260800363EBA1940F2FE718A4217DC002A30DCE5
:1026180012F1350F1EDB244E363220461E40234B66
:1026280046EA02510022FDF74FFFF8BD40F2FF7263
:102638009642E6D10246FDF791FDF8BD14A3D3E911
:102648000023ED0F1A481C4665F3DF742146FDF799
:102658003BFFF8BD05F00044164844F0D27141F440
:10266800B7310DA3D3E9002341F01F01FDF72CFF7B
:10267800F8BD0D4E20461E4046EA0251F8BD06A39D
:10268800D3E90023FDF720FFF8BD00BFAFF30080BA
:102698009C7500883CE4377E59F3F8C21F6EA5018B
:1026A80000005043B03CFFFFFFFF0F800000903C4C
:1026B8009C75008859F3F8C22DE9F04F016C9BB066
:1026C80016461F46279D0490CDE9026749B1426C22
:1026D8000123044693404A608B605AF0D3FF0023DD
:1026E8002364B7F10009C0F2B68000232B607E4B4B
:1026F80033EA090300F0BA800022DDE90234184603
:1027080021460023CDE90801FEF746F9804668B165
:102718000123269A1360289B13B1744B289A1360DF
:10272800DFF8CC8140461BB0BDE8F08F18AB0498A9
:10273800019319AB0093DDE908235BF0A9FB8346FD
:102748005FEA195540F0A980DDE91885454405F28E
:102758003243202B40F34D82C3F1400309FA03F9B9
:1027680005F2124326FA03F349EA0300FDF732FEA5
:10277800013D0123A1F1F871109300225D4BFDF793
:10278800EBFC53A3D3E90023FDF79EFE52A3D3E944
:102798000023FDF7E3FC06460F462846FDF72AFE10
:1027A8004FA3D3E90023FDF78FFE02460B463046C0
:1027B8003946FDF7D3FC06460F46FEF781FB00229B
:1027C8008246002330463946FEF7F0F8002840F0EC
:1027D8000382A8EB0508BAF1160F08F1FF33069338
:1027E80000F2A781444E06EBCA06DDE90801D6E9E6
:1027F8000023FEF7DBF8002800F0848000230AF1AC
:10280800FF3A0F9308F1FF33002BC0F299810023A0
:102818000A93BAF1000F7BDA0A9BCDF82CA0A3EB40
:102828000A030A93CAF100034FF0000A0E93249B8F
:10283800092B77D8052B40F3E181043B002724932B
:10284800249B023B032B00F25986DFE813F0540463
:10285800510447042C04012329F000492B60224B22
:10286800CDF80C9033EA09037FF446AFC9F3130996
:1028780042F20F73269A59EA060913601DD0289B65
:10288800DFF87880002B3FF44DAF08F10303289A56
:10289800404613601BB0BDE8F08FDDE90812CDF8A3
:1028A8004080A5F2FF35C2F313030846DDF86080C7
:1028B80043F07F5141F440115FE7289BDFF84080E7
:1028C800002B3FF42FAF08F10803E0E7AFF30080D7
:1028D80061436F63A787D23FB3C8608B288AC63F1E
:1028E800FB799F501344D33F0000F07FCD4409008B
:1028F800CC4409000000F83F0004090068450900BD
:102908005C450900B8F1000F40F3B1840F900A90BC
:10291800069BCDF82CA05344069300230E93249BCA
:10292800092B87D900230127CDE924334FF0FF3342
:102938000C970793049B00215964079B11930498F3
:102948005AF07AFE0590002800F0E185079B0E2BCF
:102958008CBF002707F00107DDE904321A64002F55
:1029680000F01B810B9A002A40F34A81BC4E02F00A
:102978000F03D4054FEA221806EBC303D3E9006717
:1029880040F17083B74B08F00F080325D3E90823FB
:10299800DDE90801FDF7C2FECDE91201B8F1000F2B
:1029A80012D0DFF8C09218F0010F08D0304639462F
:1029B8000135D9E90023FDF787FD06460F465FEA92
:1029C800680809F10809EED132463B46DDE91201F3
:1029D800FDF7A4FE804689460F9B43B10022A24B17
:1029E80040464946FDF7E2FF002840F04784284664
:1029F800FDF700FD42464B46FDF766FD9B4B002266
:102A0800FDF7ACFB079B0646A1F15077002B00F0C1
:102A1800AB80079B0B9C1293059B404612995D1C4B
:102A2800CDE914678E4E06EBC10353E90212CDE9D6
:102A380016124946FEF744FA00F13007FDF7DAFCB2
:102A480002460B4640464946FFB2FDF785FB8946DC
:102A58000C998046DDE91623002900F00F8100203B
:102A68008349FDF75BFEDDE91423FDF775FB059E41
:102A780042464B46377006460F46FDF7B5FF00281D
:102A880040F02F850023CDF858A0CDF850B09A46D5
:102A9800DDF848B012942BE00AF1010ADA4580F219
:102AA800BD84304639460022724BFDF70DFD0022E9
:102AB800704B06460F4640464946FDF705FD8946D8
:102AC8008046FEF7FDF90446FDF794FC02460B46E6
:102AD800303440464946FDF73FFB32463B4605F851
:102AE800014B80468946FDF761FF002840F09C8431
:102AF80042464B4600205C49FDF72EFB32463B46DA
:102B0800FDF754FF0028C7D0DDF850B02F46129CBF
:102B1800059902E08F4200F05F843A4617F8013DBC
:102B2800392BF7D00133DBB23B70DDF81480059206
:102B38006BE101230F9308F1FF33002BBFF667AE5B
:102B4800C8F101030A930023069362E62846FDF7BD
:102B580051FC42464B46FDF7B7FC0022434BFDF7BC
:102B6800FDFA0646A1F15077404649460022424BFD
:102B7800FDF7F2FA32463B4680468946FDF734FFB8
:102B8800002840F0AD8340464946324607F10043ED
:102B9800FDF70CFF002840F0D5810B9A199B0E2AEF
:102BA80002DC002B80F2AD810C9A002A00F0B5807F
:102BB800249A012A40F38583079A0E9B551EAB423F
:102BC800C0F2C782002AA3EB050580F25B840A9B4A
:102BD800079AA3EB0208C9E25046FDF70BFC324600
:102BE8003B46FDF7D9FE00287FF4F3AD0AF1FF3A22
:102BF800EFE5C3F1200306FA03F0B7E501271FE666
:102C080000F0A3820B9B164E5D4205F00F0306EB06
:102C1800C303DDE90801D3E90023FDF755FC2E11B4
:102C2800CDE9120100F052840E4C002302258046A3
:102C38008946F00709D5404649460135D4E90023BD
:102C4800FDF742FC3B4680468946761004F10804AD
:102C5800EFD1002B7FF4C0AEDDE91289BCE600BFDE
:102C680000040900D80309000000F03F00001C40E0
:102C78000000E03F0000244000001440DDE914019A
:102C8800FDF722FC059B1F70129B012BCDE90C015F
:102C980000F00984129F059BCDF840A01F44002234
:102CA800AA4B40464946FDF70FFC89468046FEF789
:102CB80007F98246FDF79EFB02460B460AF1300AE9
:102CC80040464946FDF748FA05F801ABAF42804651
:102CD8008946E4D1DDF840A000229D4BDDE90C01D6
:102CE800FDF73CFA42464B46FDF760FE002840F0EF
:102CF8007B8300209649DDE90C23FDF72DFA424637
:102D08004B46FDF771FE002840F01982199B002BF5
:102D180003DB0B9B0E2B40F3F58000230E9DDDF8A3
:102D280028801E460C93B8F1000F0DDD0699002986
:102D38000B4609DD41450A9AA8BF4346D21AA8EBBB
:102D48000308CB1A0A9206930E9B53B10C9B13B13E
:102D5800002D40F01E8259460E9A04985AF07AFEC9
:102D68008346012104985AF095FD0746BAF1000FF1
:102D780040F06381249B012B40F37A81012306995B
:102D88000B4413F01F0308D0C3F12002042A00F3F8
:102D9800B5810AD0C3F13C0300E01C230A9A984489
:102DA8001A440A92069A1A4406920A9B002B05DDD9
:102DB80059461A4604985AF0A7FE8346069B002BEC
:102DC80005DD39461A4604985AF09EFE0746249BAC
:102DD800022B0F9BD4BF00250125002B40F0BE809D
:102DE800079B002B24DC1DB3079B002B00F08F8171
:102DF800259BDDF81480DC43394604985AF042FCE0
:102E08001EB1314604985AF03DFC594604985AF0D0
:102E180039FC00220599631C0A70269A1360289BC6
:102E2800002B3FF47FAC404619601BB0BDE8F08F23
:102E38000C9B002B00F0AF80B8F1000F00F3C081AD
:102E4800BAF1000F40F0D382B146059D079C6B1E76
:102E58001C44029B089403F00103049C0A9339461E
:102E6800584659F087FB3146824658465AF0C0FE0C
:102E78004A463946804620465AF0DAFEC26801467C
:102E88000AF13003002A40F0A281CDE90603584632
:102E98005AF0AEFE0699069020465AF0F3FB249BA2
:102EA800069A52EA0301079B40F0C2810A9A002A57
:102EB80000F0F282B8F1000FC0F2AD81089AA8467E
:102EC800AA4208F8013B00F0D282594600230A22A0
:102ED80020465AF0E1FB4E45834631464FF0000349
:102EE8004FF00A02204600F09D815AF0D5FB494672
:102EF800064600230A2220465AF0CEFB4546814664
:102F0800ADE7144E0B9B06EBC306D6E90034CDE9BA
:102F18000234259B002B80F2E881079B002B00F3ED
:102F2800E481079B73B900220B4BDDE90201FDF731
:102F3800CBFA02460B46DDE90801FDF741FD002802
:102F480000F0CE8100273E4652E700BF0000244033
:102F58000000E03F000409000000144039465846CC
:102F68005AF046FE0028BFF63BAF0B9B59460A2293
:102F78000498013B0B9300235AF08EFB0C9B83466D
:102F8800002B40F09282119B002B119B079302DCCF
:102F9800002D7FF429AFDDF814800125079CDDF8AA
:102FA800109007E0594600230A2248465AF074FB5D
:102FB800013583463946584659F0DCFAA54200F1F6
:102FC800300308F8013BEDDB079A0025002ACCBF47
:102FD80090464FF00108059A9044594601220498FA
:102FE80002935AF091FD394683465AF001FE0028B3
:102FF80040F3E481059A02E0904500F0D48118F886
:10300800013CC24608F1FF38392BF5D001330B9C3F
:1030180088F80030394604985AF034FB002E00F046
:10302800C8812DB1B54203D0294604985AF02AFB2D
:10303800DDF81480CDF814A0E3E601465246049862
:103048005AF008FD249B0746012B40F395804FF06A
:10305800000A3B6907EB830318695AF0C7FBC0F104
:1030680020038CE6DDE908340225CDE9123495E425
:10307800029B002B7FF482AEDDE90212C2F3130338
:10308800002B7FF47BAEAD4B134033B10A9B013369
:103098000A93069B013306930123BAF1000F40F00F
:1030A800F9819A466AE601230C93259B0B9A1344EF
:1030B80011930133012B1D460793B8BF0125172D26
:1030C80040F31382012204235B001146013203F10D
:1030D8001400A842F8D9049B596430E401230C93E6
:1030E800259B002B40F3BE801D4611930793E6E70E
:1030F80000230C93D9E700230C93F1E7C3F11C03D9
:103108000A9A19441A4498440A9206914DE6394697
:10311800052204985AF0C0FA0746584639465AF02C
:1031280067FD00287FF764AEDDF81480059B0B9CD3
:10313800013301340593312388F800305CE63A46C0
:1031480017F8013D302BFAD0EFE40225DDE90889B4
:1031580042E40E9B0E95EB1A00259A44DDE90632EF
:10316800134406930A9B984613440A930121049832
:103178005AF090FB0646D6E5029B002B7FF467AF1A
:10318800DDE90201C1F313030A46002B3FF47BAFCC
:103198005DE7049C31462A4620465AF05BFC064609
:1031A8005A46204631465AF0A3FB594683462046E4
:1031B8005AF068FA0E9B5B1B0E933FF4D2ADCAE53A
:1031C8003146424604985AF09FFC064638E6049871
:1031D80006935AF057FAB8F1000F069B08DB029ADB
:1031E800249902F0010248EA010852EA08022ED1A5
:1031F80059460122049802935AF086FC39468346C0
:103208005AF0F6FC0028029B40F36581392B00F048
:1032180031810AF13103AA460B9C35464E460AF81D
:10322800013BF7E65AF038FA45460646814616E667
:10323800B8F1000FC0F25E81249948EA01080A99A2
:1032480051EA080800F05681002A7FF737AE392B7B
:1032580000F01081AA46013335460B9C4E460AF809
:10326800013BD7E6012325930793FFF763BBC8F11A
:10327800010306900F900A93FFF74ABB079B002BA8
:103288003FF464AC119B002B7FF787AC0B9A404648
:1032980049461293541E2A4B0022FDF715F9804621
:1032A8008946681CFDF7A6F842464B46FDF70CF91F
:1032B8000022244BFCF752FF0646A1F15077FFF796
:1032C800ABBB109A002A00F08B8003F23343069AB6
:1032D8000E9D1A4406920A9A90461A440A9245E7A5
:1032E8000027DDF814803E4620E7DDE90889DDE99E
:1032F800022340464946FDF711FA059FFDF7E0FD18
:103308000546FDF777F8DDE90223FDF7DDF80B4602
:10331800024649464046FCF71FFF05F1300307F80F
:10332800013B079B012B00F08980CDF818B00126DE
:10333800DDF81C90DDE902AB22E000BF0000F07F61
:103348000000244000001C4052465B4620462946A7
:10335800FDF7E4F90136FDF7B3FD8046FDF74AF8BD
:1033680052465B46FDF7B0F80B4602462946204612
:10337800FCF7F2FE08F13003B14507F8013B5AD0DB
:103388000022704BFDF7A0F80022002304460D46EA
:10339800FDF702FB0028D7D0DDF818B0DDF814805F
:1033A8000B9C059731E50B9C3123059A013413706A
:1033B80030E6DDF81480CDF814A026E503D1029B91
:1033C800DB073FF517AE18F8013CC24608F1FF3895
:1033D800302BF8D00B9C1DE601343123FFF7A4BB3A
:1033E800189BC3F1360372E70599FFF796BB71681E
:1033F80004985AF021F90546002800F08F803369B7
:1034080006F10C010C3002339A00FDF7EFFB294658
:10341800012204985AF078FB814616E5DDF858A099
:10342800DDF850B0FFF7B9BBDDF81480DDF850B017
:10343800129C0595E9E4DDF818B0454602460B46AE
:10344800FCF78CFE80468946DDE90223FDF7CCFABD
:1034580048B940464946DDE90223FDF79DFA0028B0
:103468009CD0E9079AD50B9C0599FFF756BB3546C2
:103478004E46B2E5A84639233546059A4E4608F821
:10348800013BBCE5069B134406930A9B98461344EC
:103498000A936BE69A46DCE5392BEBD0B8F1000FBE
:1034A8003FF7B7AEB7E62F4616E4314600230A22A7
:1034B80004985AF0F1F8119B0646002B119B0793CC
:1034C8003FF7BAAC002D7FF48FACB5E4DDE9128983
:1034D8000225FFF781BA7FF49EAEDA077FF59BAE2F
:1034E80094E6DDF8148005958FE40021049B596467
:1034F800FFF725BA002A3FF77BAE8CE6049B002530
:10350800184629465D645AF097F8059068B90E4B3D
:1035180000224FF4D5710D4851F020FC02460A4BA9
:1035280040F2EA21094851F019FCDDE904322595F9
:103538001A644FF0FF33012211930C920793FFF79F
:103548002CBB00BF000024406C45090080450900E1
:103558002DE9F04F1C46794B9FB00E460025834657
:10356800186807921A95089052F028FD0021024623
:1035780033460020CDE904019846199313F801ABAE
:10358800BAF12D0F5ED801A151F82AF02B370000AF
:103598004D3600004D3600004D3600004D36000017
:1035A8004D3600004D3600004D3600004D36000007
:1035B800813500008135000081350000813500002B
:1035C800813500004D3600004D3600004D360000B4
:1035D8004D3600004D3600004D3600004D360000D7
:1035E8004D3600004D3600004D3600004D360000C7
:1035F8004D3600004D3600004D3600004D360000B7
:103608004D3600004D3600004D3600008135000073
:103618004D3600004D3600004D3600004D36000096
:103628004D3600004D3600004D3600004D36000086
:103638004D3600004D360000FF3C00004D360000BE
:10364800193D000000230993BAF1300F00F0688299
:1036580000230A93AAF13003092B00F256840027AD
:1036680040463D463C460130082C07EB870104F1F3
:10367800010405EB850C199090F800A0CCBF03EB72
:10368800410703EB4C05AAF13003092BEBD9089944
:10369800089252F0EBFC089A8146002850D1199BF9
:1036A80001460894981819909B5CA3F13002092AE6
:1036B80000F2F082013192461998002A40F0F8840D
:1036C800431C19934378F0E74FF0010EB31C19938C
:1036D800B378A3F1300CBCF1090F00F2F582199A06
:1036E800302B0B9240F02B83013219921378302B38
:1036F800FAD0A3F131000B92082840F21E83002271
:103708000C9254BB0A9A0A4340F09882BAF1000F0F
:1037180007D1692B00F0398340F318826E2B00F033
:103728001B82079B4FF000084FF0000903B11E6091
:10373800404649461FB0BDE8F08F00BFE447090086
:103748002AF02002002153460894452A89468A46D1
:1037580000F0AD820C91002CD4D0089A2846A246DD
:103768001346002A08BF23460893FCF733FE0B468E
:103778000246102CCDE904230C9BA8BF4FF0100A79
:10378800092CA3EB09030B9317DD544B03EBCA0376
:1037980053E91223FCF798FE024638460F461646B0
:1037A800FCF718FE02460B4630463946FCF7D6FCB5
:1037B8000F2CCDE9040100F3E1810B9B002B00F0F5
:1037C80097820B9B40F3A782162B40F39A84C4F18F
:1037D80025030B9A934280F2DA84A4EB0A06164476
:1037E80016F00F000AD03D4901EBC001DDE90423C2
:1037F800D1E90001FCF768FECDE9040136F00F03BA
:103808004ED0B3F59A7F00F34684102B4FEA231667
:1038180040F3B285DFF8C8E04FF0000CCDF82890EF
:103828007746E246F146DDE9042316F0010F10461B
:1038380019464FEA66060AF1010A07D0D7E90023BC
:10384800FCF742FE4FF0010C02460B46012E07F131
:103858000807EAD1CE46DDF82890BCF1000F01D068
:10386800CDE90423059B0EEBCA0E1E4EA3F154733B
:103878000593DDE90423DEE90001FCF725FE1A4B78
:103888000A460B40B342CDE9040100F2048417490B
:103898008B4240F2FE844FF0FF33154ACDE90432E3
:1038A80000230A932346089A41465846009559F042
:1038B80045FF1590002800F0EE830B9A4FF0000AA0
:1038C8000C9B002ACDF820A0A9EB0303A8BF002376
:1038D8000C9322EAE2731493E2E000BF00040900AB
:1038E800D80309000000A07C0000F07F0000907C55
:1038F800FFFFEF7FD21A1F2AA4EB020400F3C6824F
:10390800012300259340984626443C440A9BA7423D
:103918001E443B46A8BF2346B342A8BF3346002BEC
:1039280002DDE41AF61AFF1A0C9B002B00F35482EE
:10393800002C00F36A820B9B002B00F39D82002E63
:1039480000F38E82002F08DD51463A4658465AF059
:10395800DBF88246002800F08C824A461A995846BD
:103968005AF066F90890002800F08382089A00232C
:10397800D168D3600D9151465AF03AF90028C0F247
:10398800C584059F00F02284514608985AF0E0FA51
:1039980000224FF0804304460D46FDF711F8002839
:1039A80000F00A820D9B002B40F07C82049B002BC8
:1039B80040F06183C7F31303002B40F0E682002236
:1039C800AB4B20462946FCF7F1FF002840F0F58371
:1039D8002046A84B29460022FCF776FD03460C46F4
:1039E8000E90CDE9123401F100430F93A24EA34B80
:1039F8003E409E42DDE90E4500F05B820A9B23B300
:103A0800B6F1D46F21D8DDE9127897A3D3E9002362
:103A180038464146FCF7D4FFA0B141463846FCF78A
:103A2800EDFF012838BF0120FCF7D4FC0D9BCDE940
:103A38001201002B40F0378301F1004316901793D1
:103A4800DDE9164505F1D6639D1BDDE9107838469A
:103A580041465AF09DF902460B4620462946FCF796
:103A680033FD3A464346FCF779FB0C46CDE90401A1
:103A7800814B2340B34203D10A9B002B00F08E8276
:103A88001A99584659F0FEFD4946584659F0FAFD2C
:103A98005146584659F0F6FD0899584659F0F2FD36
:103AA800159C5846616859F0C7FD8146002800F00A
:103AB800E081226904F10C010C3002329200FDF71A
:103AC80095F81CAB584601931BAB0093DDE9043411
:103AD8001A46CDE9103423465AF0DAF91A9000282C
:103AE80000F09C810121584659F0D4FE82460028F6
:103AF80000F0BF811B9B002BC0F2AE810C9A149E74
:103B08009F180A9A1C9C9B1A5D4A2344C4F13604E8
:103B1800013B9342FFF6EEAE012300259846F3E6FB
:103B280098F8013003F0DF03582B00F07582434604
:103B38000133199393F800A0BAF1300FF8D09846E2
:103B4800BAF1000F7AD001230A9383E5492B00F0DC
:103B58001C814E2B7FF4E5AD4A4919A85BF0A8FA01
:103B680000283FF4DEAD199B1B78282B00F07E83DC
:103B780045485BF0A9FB8046894663E0A4EB0A064A
:103B88000B9B1E44002E3FF72BAE3FF489AE7642C6
:103B980016F00F020AD03D4B03EBC203DDE9040126
:103BA800D3E90023FCF7BAFDCDE9040136113FF44F
:103BB80077AE1F2E3FDC16F01003354F4FF0000C88
:103BC80018BF6A230A93DDE9042316F0010F104693
:103BD800194607D0D7E90023FCF776FC4FF0010C13
:103BE80002460B46761007F10807EED1BCF1000F2C
:103BF80001D0CDE904230A9BA3B1DDE90401C1F397
:103C08000A52C2F16B03002B0ADD1F2B40F3FA8323
:103C18000020342B049040F321844FF05C7305930B
:103C28006A230A9300220023DDE90401FCF7B4FEAD
:103C380000283FF437AE2223CBF800304FF00008BD
:103C48004FF00009079A0AB1199B1360099B002BD2
:103C58003FF46EAD09F100434046994649461FB00E
:103C6800BDE8F08FAFF300800000C0FFFFFFDF4129
:103C78000000F03F0000E03F0000F07F0000E07F20
:103C880002FCFFFF58460900F05009000004090033
:103C9800C80409004FF0010A23F02002452A7FF4E6
:103CA8002EAD44EA01030A9A13433FF43AAD199E34
:103CB800731C199373782B2B00F023812D2B3FF461
:103CC80003AD4FF0000E04E5002219960C9218E59A
:103CD8001C9A03F2334304921D9A22F4801242EA9A
:103CE80003530593210703D5059B43F00043059330
:103CF800DDE90489A6E70023099308F10103199374
:103D080098F801A0BAF1000F3FF40BAD98469BE478
:103D180001230993F1E71633FFF630AF0C9BA9EBAB
:103D28000309B34B03EBC903DDE90401D3E900231D
:103D3800FCF7F4FC8046894684E7A3F1300C0B9B22
:103D4800581C19905B78A3F13002092A00F2D1813E
:103D580001300CEB8C0C199003EB4C0C0378ACF194
:103D6800300CA3F13002092AF2D90B9A801A0828DC
:103D780040F3BF8144F61F620C92BEF1000F3FF47E
:103D8800C0AC0C9A52420C92BBE49A4919A85BF059
:103D98008FF900283FF4C5AC199B19A89649013B37
:103DA80019935BF085F910B9199B013319934FF0FA
:103DB8000008DFF8489245E7914B20462946002243
:103DC800FCF782FB0D9BCDE91201002B65D101F1B7
:103DD80000430E900F9309E651461A46584659F08B
:103DE80039FE8246002844D001461A9A584659F0AE
:103DF8007FFD00283DD00D9058461A9959F042FC95
:103E08000D9B002C1A937FF796AD22461A995846B7
:103E180059F07AFE1A9000287FF48DAD4F4605467A
:103E280022234FF00008DFF8D491CBF80030294660
:103E3800584659F027FC3946584659F023FC514654
:103E4800584659F01FFC1599584659F01BFC08991B
:103E5800584659F017FCF5E6149A0C9FD61A50E606
:103E680049463246584659F04FFE814600287FF4AD
:103E780069AD4F461A9DD3E74946149A584659F0FA
:103E8800E9FD814600287FF45AADF2E75D4AD31A6E
:103E9800012202FA03F5904636E5DDE91234CDE950
:103EA8000E34A3E50023584CCDE90E34CDE9123485
:103EB8009CE5A7F15473514F0593DDE9044520466D
:103EC800294659F065FFDDE90E23FCF7FDFA2B467C
:103ED8002246FCF743F94D4B0F409F42CDE90401C0
:103EE80040F2DD8003F15473DDE91001994202D1FB
:103EF800B0F1FF3FBDD04FF0FF33454ACDE9043262
:103F0800BEE54FF0000EFFF7E1BB089940460B9263
:103F180052F0ACF80B9A089048B100225346174665
:103F2800924615461146914614460892B4E6199BE6
:103F3800981819909B5C302B40F027810246114657
:103F4800013219921378302BF9D0C0F101000144E5
:103F5800A3F13102082A10D8DDF864800025A3F106
:103F6800300A01F10109012440462F4605EB850579
:103F780000210AEB4505FFF7A3BB4FF000094FF0FE
:103F8800010A4C464F464D4686E60023214CCDE9B2
:103F98000E3400231C4CCDE9123427E5DDE9125616
:103FA800C4F3130728463146FDF750FEFCF75EFAC6
:103FB80002460B4628463146FCF7CEF8049D0D9E76
:103FC80004462E430D46374343D107A3D3E90023C4
:103FD800FCF7ECFC00283FF453AD4F461A9DDDE991
:103FE800048924E7AFF300809535A094FFFFCF3F05
:103FF800000409004C460900504609000000F07F03
:104008000000E03FE2FBFFFF0000F03FFFFF9F7C66
:10401800FFFFEF7F0000F0BF099B19A902945846E3
:1040280001931AABB04A00931BAB5AF045FD10F050
:10403800070504463FF402AE062D7BD1079A12B15C
:1040480008F1010313604FF000084FF00009FFF773
:104058006FBBA1A3D3E90023FCF7A8FC0028BCD1BF
:10406800204629469EA3D3E90023FCF7BDFC00287F
:104078003FF406ADB1E7049B012B86D1002F84D114
:104088004F461A9C222325464FF000084FF000099E
:10409800CBF80030CBE62223CBF8003087E601F1DD
:1040A80054740594E4E4DDE91234CDE91634C7E428
:1040B800012900F0138204EB010E0EF1FF3CCDF84C
:1040C8002CE003E04FEA4E05A4450BD0082C05EB85
:1040D800850E04F10104F5D907EB8703102CD8BF2E
:1040E8005F00F1E7DDF82CE0082C894416DC744603
:1040F8003CE744F61F629445A8BF9446CDF830C00B
:104108003BE60B98794901EBC001DDE90423D1E9CD
:104118000001FCF7D9F98046894693E5BEF1100FF6
:1041280074464FF00001DCBF07EB870702EB470737
:10413800FFF7C6BA1A9A3AB135211CA859F032FFCE
:1041480058461A9959F09EFA013D1B9B042D3FF6DB
:10415800C9AD01A252F825F0D93C00008941000000
:104168008341000075410000D93C00004FF0FF3347
:104178006FF00040CDE90430B4E55D4B0593B1E53F
:104188001C9B04931D9B0593ACE50899E0E6C4F1DC
:104198000F04564D05EBC401DDE90423D1E9000104
:1041A800FCF792F90B9B1C1B05EBC405D5E9002312
:1041B800FCF78AF98046894644E500234D4CCDE951
:1041C8000E3400234C4CCDE912340FE43B460D98D5
:1041D800C4464F46AE464949C3F31302DDE9108988
:1041E80000285BD08A4200F0FB80B5BB049A1CEA29
:1041F800020F35D040464946049359F0C9FD0A9B41
:1042080004460D46002B00F01F81049BC3F30A539C
:10421800C3F16B06002E40F36481394C002204EB95
:104228000653FCF751F902460B4640464946FBF750
:1042380095FF1A9C8046894640464946314B0022E4
:10424800FCF742F90B4625468046034389467FF42E
:10425800EEAD2223CBF80030E9E51EEA030FC9D101
:104268001A9C0A9B2546002BE6D1E0E519A81CAA52
:1042780025495AF037FF05287FF47AAC1D9B43F097
:10428800FF4343F4E00305931C9B0493DDE9048991
:10429800D8E402F154730593FFF702BB002A71D1E9
:1042A800DDE904452246002C40F0B4800A9A002A31
:1042B80040F0F08025F00044240D2405A4F5801476
:1042C8001A9D6FEA14536FEA035305934FF0FF33B7
:1042D8000493DDE90489AAE59535A094FFFFDF3F43
:1042E80035E5AF350000E03F7046090000040900DD
:1042F8000000F07F0000E0BF0000E03FFFFF0F007C
:104308000000F03F000050395C4609000D9B4F4605
:10431800DDE90401DDE910890343A1D1C1F31303E9
:10432800002B9DD121F00044240D2405B4F1D66F53
:10433800264695D9089A536913B91369012B8FDD5D
:1043480008990122584659F0DFFB5146089059F068
:104358004FFC002884DD0A9B002BAFD0A6F5801304
:104368001A9C6FEA13536FEA035305934FF0FF3318
:104378000493DDE904895FE74FF0000ADFF87CE188
:10438800FFF770BA002D48D1049A1CEA020F3FF4D7
:1043980067AF40464946049359F0FAFC0A9B002B44
:1043A80040D0049BC3F30A53C3F16B06002E40F3BD
:1043B800A280534C002204EB0653FCF785F8024612
:1043C8000B4640464946FBF7C7FE002200238046BD
:1043D8008946FCF7E1FA00287FF453AE1A9C2BE7D4
:1043E800DDE904010A9A0446002A40D10246013256
:1043F8006DD0BEF1000F7FF430AF14EA0C0F3FF41C
:104408002FAFF7E64FF0FF3202FA03F3049A1A408F
:10441800049205E4BEF1000FB7D01EEA030F3FF483
:104428001FAFB6E702460B4640464946FBF794FEE7
:104438001A9C00220023804689462546FCF7ACFAE0
:1044480000283FF4F4AC1DE6404649462B46224678
:10445800FBF784FE1A9D80468946E8E4C2F14B02C8
:104468004FF0FF3393400B400593FFF7D9BB254A24
:104478001A40B2F1D46F21D9611CBAD122498B42BA
:104488003FF4F8AC02F58013059300230493DDE9AB
:104498000489E5E61B4E1E40B6F1D66F3FF65EAFC7
:1044A8001A9DB6F15C7F2C463FF6C6AE22234FF02C
:1044B80000084FF00009CBF80030B8E4100D4FF0B9
:1044C800FF31C0F16B0081408C4292D1DAE70E4A8D
:1044D80093423FF4CFAC01321A40D3E704F1010E06
:1044E80002E64046494622462B46FBF737FE1A9C11
:1044F80080468946A0E602460B4662E7D8030900D3
:104508000000F03F0000F07FFFFFEF7F0000000099
:104518002DE9F04F012984468E4687B064D80029DA
:1045280042D033A3D3E9002333A7D7E9006734A5E2
:10453800D5E900450FF2D00BDBE900AB34A1D1E996
:104548000001CDE9042334A3D3E90023CDE90023F6
:1045580033A3D3E90023CDE9022333A3D3E900230E
:104568004FF000084FF00009CCE90A01DDE9040129
:10457800CCE90C01DDE90001CCE90E01DDE902011D
:10458800CCE910010020CCE90089CCE90289CCE90A
:104598000467CCE90645CCE908ABCCE91223CCF892
:1045A800D0E007B0BDE8F08F21A3D3E9002322A70C
:1045B800D7E90067CDE9042321A5D5E9004522A361
:1045C800D3E900230FF2880BDBE900ABCDE9002328
:1045D80021A1D1E9000122A3D3E90023CDE90223D7
:1045E80021A3D3E90023BBE76FF07400D9E700BF2C
:1045F800310BC0FF67263367D89E05C15D9DBBCBD5
:1046080007D57C362A299A6217DD70305A015991EC
:1046180039590EF7D8EC2F1511155868874AB48EFA
:10462800A78FF9640D2E0CDBA44FFABE1D48B547C1
:10463800D182E6AD7F520E5108C9BCF367E6096A1C
:104648003BA7CA8485AE67BB1F6C3E2B8C68059B55
:104658002BF894FE72F36E3CF1361D5F3AF54FA5C8
:104668006BBD41FBABD9831F79217E1319CDE05B6C
:104678002DE9F0430129054687B012D9506850F05A
:104688008BFB4FF6FE73421E9A4206460BD928460C
:1046980008214D4A63F03DFB6FF0150007B0BDE8F7
:1046A800F08343F23906334608212846474A63F027
:1046B80030FB0121082706220846019764F009FC0F
:1046C8004FF0000804464FF0010906FA07F343EAE1
:1046D8002623394628463E4AADF80A303346ADF817
:1046E8000890CDF80C8063F014FB3A4620460DEB99
:1046F800070164F0C2FB40451BDA3648036803F043
:104708000703022B03D9344A032162F0DAFF20465B
:1047180001F01EFB2F48036803F00703022B05D99D
:104728004FF0FF3303212D4A62F0D4FF4FF0FF30E2
:10473800B4E74946204664F0A4FB002807DA254878
:10474800036803F00703022BE1D9254ADCE7334667
:1047580039462846234A63F0DCFA204601AA04A910
:1047680064F089FB061E07DA1A48036803F007039A
:10477800022BCCD91C4AC7E7394628461B4A63F0A6
:10478800C8FA1B4FDFF86C90002340F2FF32304626
:10479800174964F078FB00280CDC0821164A2846E3
:1047A80063F0B7FA304601F0D3FA204601F0D0FAA8
:1047B800002073E707F800803B464A460821284650
:1047C80063F0A7FAE0E700BF225309003853090055
:1047D8005B530900041700206F5309002354090094
:1047E80085530900A0530900CA530900E65309007C
:1047F800A8720020F8530900065409002DE9F04179
:1048080000AF13F04BFA03461B483BB903685B073C
:104818002BD01A4A012162F054FF26E01A68036877
:10482800117D03F00703062922D1022B1DD9136934
:104838006C468CB093F800E093F801C09E78DD7860
:1048480019796A465B79D3620823DFF83480C2E9B4
:1048580007C6C2E9058EC2E9095142F8103F002394
:1048680044F2C00102F034FFA546BD46BDE8F08120
:10487800002BFAD0034ACDE704170020365409006C
:1048880051540900B4DC0A0001212DE9F04FB9B0F8
:1048980081460622084600AF64F01BFBB0F1000811
:1048A8000BDA994803685D0703D00121974A62F043
:1048B80008FFE437BD46BDE8F08F5422002107F118
:1048C8000C0050F05BFC01230624C7E905330023E4
:1048D8008F49BB60FC6107F1080307F10C024846E9
:1048E80064F0C7FA034608B9BA6812B9013C0FD197
:1048F80013B9BD68BDB92B4683480268540703D075
:10490800844A012162F0E6FE404601F021FAD0E730
:10491800002140F6CD404FF0E5FB002107F10803E8
:1049280007F10C02DBE70026DFF8DCA1BB68DC69D5
:10493800B4F800B0BBF1010F40F0AE804FF4A043D3
:10494800082221464046638064F099FA061E2CD15D
:10495800B86864F08CFA4B4680216F4A07F1600012
:1049680050F0BCFF07F1600051F028FB002302461D
:1049780007F16001404664F09CFA684C624E0025DD
:10498800002340F2FF324046644964F07CFA002874
:10499800BADD3368255403F00703022BF0D903214D
:1049A8005F4A594862F08DFEE9E763DADAF80030C9
:1049B80059075FD05B4A33465946534862F08AFE2E
:1049C800DAF8003003F00703022B53D9C7F804D0F4
:1049D8008AB06A4694F804C06079A179E3794FF007
:1049E800060BDFF844E1C2E90701C2E905EC5362AE
:1049F80042F810BF00234FF44351434802F068FEC9
:104A0800DAF80030D7F804D003F00703022B31D9C5
:104A18008AB06A4694F804C06079A179E379DFF82E
:104A28000CE1C2E90701C2E905EC536242F810BF84
:104A380000234FF44351344802F04AFEDAF80030BC
:104A4800D7F804D003F00703022B13D963885BBAA5
:104A58009BB20321364A2C4862F03CFEDAF800305B
:104A680003F00703022B05D923880321314A26487E
:104A780062F030FE2D68002D7FF458AFB86864F0FE
:104A8800F6F9002EBFF667AF1F4803685B073FF4CF
:104A98003BAF294A334634E79B68022B30D14FF4A9
:104AA800A043182221464046638064F0E8F9061EB8
:104AB8003FF44EAFDEDADFF850B0DBF800305A07CB
:104AC800D8D0012133465846164A62F003FEDBF877
:104AD800003003F00703022BCCD963885BBA9BB282
:104AE80003215846124A62F0F5FDDBF8003003F066
:104AF8000703022BBED92388032158460D4AB7E77E
:104B0800002EB7D124E700BF041700208254090003
:104B18009A5409009D5409005A550900A8720020AA
:104B28008A550900C2540900E2540900FF540900DB
:104B38001A550900235509002E550900012910B5F9
:104B480006D80821084A63F0E4F86FF0150010BD94
:104B5800546808212346054A63F0DBF82046FFF72E
:104B680093FE0020F3E700BF94550900B0550900F3
:104B780008B5002101204CF035FC064B06491A689F
:104B8800064B0748B2FBF3F261F0EBFCFFF736FE89
:104B9800002008BDFC120020D255090040420F0039
:104BA800DC55090010B5094C0A44914200D110BDEA
:104BB80011F8013B58400309E35C0001C0B24340CF
:104BC8001809205C1B01DBB25840EEE76656090065
:104BD80008B500F0BBF80C49012241614FF0FF31E4
:104BE8000023C0E906110949C0E900220A60084902
:104BF800C0E902330A60074A03611360064A13607A
:104C0800064A136008BD00BFEDAB0A00EC060020A1
:104C1800E8060020404000203C40002038400020AA
:104C28002DE9F04107460E46154600F08FF8C36897
:104C380004461BB943691A78002A41D10023E3606E
:104C48006368BB4256F8232008DB324B6361204679
:104C580000F062F84FF0FF30BDE8F081511C61614F
:104C680092F80080B8F12D0FEFD1911C6161517855
:104C78002D29A16004D192786AB901336360E4E711
:104C880049B9244B41462846636150F0E1FE0028AB
:104C9800DDD0C4F80880D4F808802846414650F092
:104CA800D7FEB8F13A0F636900D070B91B7813B911
:104CB800636801336360204600F02EF83F20CBE79D
:104CC8005A1C42611B788360E5E742783A2A0BD088
:104CD800002222611B7813B96368013363602046A0
:104CE80000F01AF8A068B7E718786268094928B987
:104CF80001329742626004DD56F82230C4E904317B
:104D0800EAE761612D7820463A2DD5D100F004F804
:104D18002846A1E7EDAB0A000268074B1A60426813
:104D2800064B1A608268064B1A60C268054B1A6007
:104D38000269054B1A607047EC060020E80600205F
:104D4800404000203C4000203840002010B54FF083
:104D580005FA084A08498A4201D3084806E09368D8
:104D6800D3F84043844202D103F1500010BD3032E1
:104D7800F1E700BFD8E8070008E90700C8060020E7
:104D88002DE9F04F8BB000AF7B6103680546924672
:104D9800D0F81490F9603B62002B4ED013783A2B70
:104DA8004BD0954B1B68022B47D8944A52F823B036
:104DB8006B683D21BB61013348466B603B6150F035
:104DC80047FE804600283BD0A0EB09037B6200F138
:104DD800010800264FF0FF34BA6D7B6902F0040227
:104DE800FE61BA60196881BB002E60D03B6AE3B1EE
:104DF8009AF800303A2B18D08148036813F0060F50
:104E080013D06C468AB06A467E4BC2E9053B7B6A82
:104E1800C2E907397C4B53627C4B42F8103F0B4682
:104E28004FF4425102F054FCA5460023AB603F24E6
:104E380020462C37BD46BDE8F08FDFF8D4B1B7E780
:104E4800484651F0BBF87862C3E748467A6A7B6007
:104E5800396051F00BF97B6800BB3968084651F09E
:104E6800ADF87B6A984250D07A6D7B6812B17A6A45
:104E7800012A13D0621C16D0BA68B2B97A69586888
:104E880002EB0412516888420FD1986891688842F1
:104E98000BD1D968D268914218BF0126FA6910333C
:104EA8000132FA619EE7FC69F8E70126F6E7631C20
:104EB80072D07B6903EB0416736843BBB8F1000F2B
:104EC80000F08F803A6ADAB19AF800203A2A17D0AF
:104ED8004B48026812F0060F12D06C468AB06A4638
:104EE8004C49C2E9051B796AC2E90719464951626A
:104EF800464942F8101F4FF4425102F0E9FBA5461B
:104F0800B368002B91D1F36890E7FC69D1E75A1E8A
:104F1800012A04D8B8F1000F31D0C5F810807368A1
:104F2800012B5ED12B69002B5BD13A6AD2B19AF87A
:104F380000203A2A16D03248026812F0060F11D023
:104F48006C468AB06A463449C2F81C90C2E9051B0F
:104F580032491162324942F8101F4FF4225102F0CF
:104F6800B7FBA546B368ABB9F368AB606B68013BA8
:104F78006B609AF800403A2C7FF459AF58E7012B40
:104F88002FD1BB6902336B60D7E9033253F8223063
:104F98002B61C4E70023E8E77B6D13B1BB696B6045
:104FA80046E73B6A002B3FF440AF9AF800303A2BB3
:104FB8003FF43BAF1248036813F0060F3FF435AFD8
:104FC8006C468AB06A46174BC2F81C90C2E9053B8A
:104FD800124B1362124B42F8103F4FF422517B6D73
:104FE80020E73B6D03B11C60D6E90234002B3FF487
:104FF8001FAF1C6000241BE7F0060020980709007B
:10500800141600207D560900000202040500000263
:10501800EDAB0A009A560900C456090000020103C4
:1050280004000002E75609002DE9F04F87B0044656
:10503800884616461D46DDF84090129F002B3DD04D
:105048001B782D2B2ED147F002070135636813B961
:105058000123E360636000232361E3681BB14FF021
:10506800FF33C4E906334FF0000A07F0020BE36888
:105078001BB963691B78002B6ED16268C4F80CA059
:10508800424521DB914BD4E906014F1C63610ED0E8
:10509800334660F05DFED4E906239A1A63689B1ACA
:1050A800636007E02B2BD1D127F00107CDE7451C22
:1050B80018BF60604FF0FF33C4E906334FF0FF3A82
:1050C800504607B0BDE8F08F56F822306361197872
:1050D8002D2901D1597831BB7C4B6361BBF1000F9D
:1050E80007D0531C636056F822304FF0010A236141
:1050F800E6E7F807E2D5A069411C04D1A26163681C
:1051080001336360B3E7E1694B1CF8D0334660F0C4
:105118001FFED4E906239A1A63689B1AA3614FF00D
:10512800FF33E361EBE7A069411C0ED1591C6161B3
:1051380059782D2910D19B7873B9E169634B0132F5
:105148004D1C62606361B5D0A2E7E1690131EDD120
:10515800E26159780029E9D16369B9F1000F2DD0CE
:10516800626856F822209A4228D019782D2918D03A
:105178007B0723D50022564B3A291A6017D1002005
:10518800119BCDE9010700932A464B46314620463C
:10519800FFF7F6FDB0F1FF3F82460FD04B4B63613E
:1051A8008EE7012201336361494B1A60E7E728461D
:1051B80050F04EFC003818BF0120E1E7636928462B
:1051C8005A1C626193F800B004935946059250F056
:1051D8003FFCBBF13A0FDA46049B14D0BBF12D0F0C
:1051E800059A0FD1597899B900283FF467AF4178EB
:1051F8003A2961D05B78002B7FF462AF6368013392
:1052080063605DE7C0B95B7813B9636801336360B5
:10521800236863B12B783A2B09D02E48036813F022
:10522800060F04D002215B462B4A62F053FAC4F8F9
:1052380008B04FF03F0A43E7B9F1000FD7D0BBF1F0
:10524800570FD4D141783B29D1D15B78DFF87CB0B6
:1052580003BB636801339845636018DC2368C4F8AE
:1052680014B063B12B783A2B09D01A48036813F0AD
:10527800060F04D057230221184A62F02BFA57234D
:10528800A3602B783A2BD4D14FF03A0A18E756F896
:105298002330636102220E4B31461A6000230193CA
:1052A800119B2A46009320464B460297FFF768FD5C
:1052B800C4F814B0824603E7002121615B78616875
:1052C800024F6BB12261676198E700BFEDAB0A003E
:1052D800F00600201416002002570900175709008D
:1052E80083783A2BEFD001318845616012DC23685E
:1052F800676163B12B783A2B09D00848036813F02B
:10530800060F04D002215B46054A62F0E3F9C4F8AF
:1053180008B0B6E756F821302361D4E71416002008
:10532800175709002DE9F04F91B0009302F00403DC
:105338000293C2F3C2030133840705460E46DDF823
:1053480068900392059340F0BB81041D30B1072992
:1053580009D86FF01B0011B0BDE8F08F01F0070607
:10536800341DC6F10806009B4FF000084FF0040AF0
:10537800591E4FF0FF3347460193C3465346CDF8B5
:1053880010800DB1009A22600598002800F3E8808B
:105398009848009A824203D397488242C0F0E0803E
:1053A800039AA4EB050E92074FEA9E0000F10381D1
:1053B8000F2F00F2B180002D00F0058107F14002A7
:1053C8000DEB020C019A0CF8200C0CF8102C049828
:1053D80001300490E7E07A285DD84B280ED847289A
:1053E80059D829282DD8252852D054D820287AD001
:1053F8002338D0F1000B4BEB000B74E04C382E280F
:1054080049D8DFE800F070484848484848484848C4
:1054180048484B484848484848484859484B4B59D9
:105428005959704B6D487048184B184848827F4B43
:1054380048484B487F0000204FF0000B4FF0040A0B
:1054480038E001222A38C0B202FA00F010EA0E0F42
:1054580049D110F0625C2FD110EA020B43D06046AC
:10546800013C5444B4FBFAF40AFB04F4002D61D067
:10547800A3EB050CA444B4453FF66BAF002868D1F4
:10548800042B47D159F8043B2360042304342AE051
:10549800019A013A01924FF0000B24E011F8010C37
:1054A8006C2834D1002011F8023C83466C2BC5D1FE
:1054B8004FF0080A5346D3E709F1070929F007090D
:1054C800073424F00704F9E802AB35B10698204404
:1054D800B0423FF63EAFC4E900AB4FF0000B0834D2
:1054E8004FF0080A534611F8010F002878D0BBF195
:1054F800000F7FF470AF2528F5D14FF0010B019B09
:10550800013301934FF0040AECE7584694E7002072
:105518008346A5E7082B02D06FF015001BE709F1B9
:10552800070929F00709F9E80223C4E90023082339
:105538000834D8E768B9042B02D109F10409A4E7B3
:10554800082BE9D109F1070929F0070909F1080928
:10555800EDE7059A013A059259F8042B009210E7F5
:10556800039A900720D54FF0010CA4EB050E4FEAE3
:105578009E00BEF5007FCFD20F2FCDD8F5B107F131
:1055880040020DEB020E019AC0B20EF8200C0EF884
:10559800102CBCF1000F3FF41AAF60F07F000EF83A
:1055A800200C08F101080137C5F108024FF6DA7E30
:1055B8000434069297E74FF0000CDAE7BCF1000FCD
:1055C80001D00136EFE7029802360028EBD10098A7
:1055D800CDE9063150F0F2FCDDE906310644E2E798
:1055E800631BB3F5806F97D245B9A6F10804E0189C
:1055F800B1E600BF50E20700FCF90A00029A9B08D6
:1056080028602B709DF81030C2B1EB7085F80280CD
:10561800B8F1000F05D0002208A8C5F1010C974287
:105628000ED14FF0000AC5F101030DF120090193D5
:105638000DF1300B574512D1601B8CE66B70E5E716
:1056480010F8013B190608D504EB0C0EB64503F01B
:105658007F033FF67EAE04F8013B0132DFE7B8F185
:10566800000F03D099F90020002A17DB029BD3B161
:105678001AF80B2004F8012B0022019B98182044EB
:10568800B0423FF666AE99F80000009904F8010BA5
:1056980020460392FBF7AAFA039A14440AF1010A76
:1056A80009F10109C6E799F8002055F8223000935E
:1056B800029B009845F8223050F080FC421CDCE741
:1056C8006FF00D0047E600BF2DE9F04F97B000AF2F
:1056D800D7F880B03B62CBF3C0030446894690F804
:1056E80002A0FA62BB6141B9457800780AEB8000F4
:1056F80020444D4517D8A0EB0409E378FB61BAF1C3
:10570800000F02D01BF0010F16D1FB6953BBFB6AD7
:105718001BB1494620463A6A98474D4628465C37A9
:10572800BD46BDE8F08F461C304650F047FC0130BE
:10573800304409F10109DCE7626823787A62FA6A81
:105748009900796104EB8301002A40F005810E4637
:105758004FF000084D4601EB0A094E4550D101EBC8
:105768000A0610E01BF0020FD1D023789A007A6164
:10577800626804EB83017A62FA6A002A7BD14D469B
:10578800904601EB0A061BF0050F0CBF022301230C
:10579800FB62FB6906EB430A0BF00203BB6256454A
:1057A800BCD016F8021B16F8013C54F823909B4B0A
:1057B800994502D39A4B99453AD3BB69002B44D0FB
:1057C800786A60F094FE00283FD09648036813F08A
:1057D800060F13D0E9468AB06A46934B53617B6A39
:1057E800C2E906314FF400731384904B42F8103F1E
:1057F80000234FF4125101F06BFFCD46023DCEE776
:1058080016F8013BF96254F8230050F0D7FBD7F89B
:105818008430F96A01304BB1D7F8883098453EBFDB
:10582800D7F8843023F8180008F10108054494E7F4
:10583800BB6923B1786A60F05AFE0028C5D11BF015
:10584800010F05D1FB6AED1AA9E7BB6A002BA6D0A8
:10585800484650F0B3FBD7F8843053B1D7F88830B6
:1058680098453FBFD7F88420431C22F8183008F128
:105878000108054493E7BAF1000F73D01BF0040642
:1058880073D0D046002607F1480052463B61B96202
:10589800FBF7ACF9B96A3B6901EB0A02BA62FA692B
:1058A800F9695200FA60BA6A02EB41023A610BF0F8
:1058B8000202BA603A69B96A8A4258D162781BF022
:1058C800020F18BF00217A6208BF4FEA5801B218C8
:1058D8001BF0010FD2B240F09F801BF0040F14BFE1
:1058E80040460020BB616270A070E17020463A6AB1
:1058F8007969FB6A9847051EFFF610AFBB694146F8
:1059080023707B6A3A6A6370FB6984F802A0E370CB
:1059180007F14800FB6A9847B0F10008C0F2B4806C
:105928007B69A9EB0A01C91AFB683A6AC91AD7E95F
:105938000A0398470028C0F2A9804FF0000BA8443A
:1059480008EB000507F1380AB34571D300213A6A1C
:105958000846FB6A9847E1E656464FF0000807F10B
:10596800380092E75646D04696E7B04694E7BA6ABA
:1059780012F8021B12F8015CBA6254F82500274A93
:10598800904202D3264A90421ED3BA6932B1786A4D
:105998007B6060F0ACFD7B6800288BD1BA6802BBE5
:1059A80008F1280207F1300C08F10100944407F1CE
:1059B800580208F1020852FA80F00CF8101C5FFA3D
:1059C80088F800F8105C75E7BA693AB1786A7B60C4
:1059D80060F08DFD7B6800287FF46CAF1BF0010F31
:1059E80009D006F1280207F13000711C161806F8D4
:1059F800205CCEB25EE71BF0040F3FF45BAF08F10A
:105A0800280207F1300008F1010102EB000808F84C
:105A1800105C5FFA81F84DE7002063E750E2070069
:105A2800FCF90A0000160020405709000400000194
:105A38001BF80A3054F8239087F83730D7F88430A9
:105A4800FBB133F81B8001213A6AFB6A07F1370082
:105A5800984700281ADB0544B8F1000F06D14846DC
:105A680050F0ACFA00F101081FFA88F841464846A0
:105A78003A6AFB6A9847002808DB05440BF1010BDA
:105A880062E7D7F88480DEE7454647E6054645E6FF
:105A9800014B1860704700BFF406002030B50025A0
:105AA80087B0CDE903010446009503A9054805958B
:105AB80000F0F2F9DDE904309842B8BF255407B088
:105AC80030BD00BF456506000F2808B506D963F04C
